{
  "_format": "hh-sol-artifact-1",
  "contractName": "NFTTemplate",
  "sourceName": "contracts/NFT.sol",
  "abi": [
    {
      "inputs": [
        {
          "internalType": "string",
          "name": "name",
          "type": "string"
        },
        {
          "internalType": "string",
          "name": "symble",
          "type": "string"
        },
        {
          "internalType": "string",
          "name": "_defaultUri",
          "type": "string"
        }
      ],
      "stateMutability": "nonpayable",
      "type": "constructor"
    },
    {
      "anonymous": false,
      "inputs": [
        {
          "indexed": true,
          "internalType": "address",
          "name": "owner",
          "type": "address"
        },
        {
          "indexed": true,
          "internalType": "address",
          "name": "approved",
          "type": "address"
        },
        {
          "indexed": true,
          "internalType": "uint256",
          "name": "tokenId",
          "type": "uint256"
        }
      ],
      "name": "Approval",
      "type": "event"
    },
    {
      "anonymous": false,
      "inputs": [
        {
          "indexed": true,
          "internalType": "address",
          "name": "owner",
          "type": "address"
        },
        {
          "indexed": true,
          "internalType": "address",
          "name": "operator",
          "type": "address"
        },
        {
          "indexed": false,
          "internalType": "bool",
          "name": "approved",
          "type": "bool"
        }
      ],
      "name": "ApprovalForAll",
      "type": "event"
    },
    {
      "anonymous": false,
      "inputs": [
        {
          "indexed": true,
          "internalType": "address",
          "name": "previousOwner",
          "type": "address"
        },
        {
          "indexed": true,
          "internalType": "address",
          "name": "newOwner",
          "type": "address"
        }
      ],
      "name": "OwnershipTransferred",
      "type": "event"
    },
    {
      "anonymous": false,
      "inputs": [
        {
          "indexed": true,
          "internalType": "address",
          "name": "from",
          "type": "address"
        },
        {
          "indexed": true,
          "internalType": "address",
          "name": "to",
          "type": "address"
        },
        {
          "indexed": true,
          "internalType": "uint256",
          "name": "tokenId",
          "type": "uint256"
        }
      ],
      "name": "Transfer",
      "type": "event"
    },
    {
      "inputs": [
        {
          "internalType": "address",
          "name": "to",
          "type": "address"
        },
        {
          "internalType": "uint256",
          "name": "tokenId",
          "type": "uint256"
        }
      ],
      "name": "approve",
      "outputs": [],
      "stateMutability": "nonpayable",
      "type": "function"
    },
    {
      "inputs": [
        {
          "internalType": "address",
          "name": "owner",
          "type": "address"
        }
      ],
      "name": "balanceOf",
      "outputs": [
        {
          "internalType": "uint256",
          "name": "",
          "type": "uint256"
        }
      ],
      "stateMutability": "view",
      "type": "function"
    },
    {
      "inputs": [],
      "name": "baseExtension",
      "outputs": [
        {
          "internalType": "string",
          "name": "",
          "type": "string"
        }
      ],
      "stateMutability": "view",
      "type": "function"
    },
    {
      "inputs": [],
      "name": "baseURI",
      "outputs": [
        {
          "internalType": "string",
          "name": "",
          "type": "string"
        }
      ],
      "stateMutability": "view",
      "type": "function"
    },
    {
      "inputs": [],
      "name": "defaultUri",
      "outputs": [
        {
          "internalType": "string",
          "name": "",
          "type": "string"
        }
      ],
      "stateMutability": "view",
      "type": "function"
    },
    {
      "inputs": [
        {
          "internalType": "uint256",
          "name": "tokenId",
          "type": "uint256"
        }
      ],
      "name": "getApproved",
      "outputs": [
        {
          "internalType": "address",
          "name": "",
          "type": "address"
        }
      ],
      "stateMutability": "view",
      "type": "function"
    },
    {
      "inputs": [
        {
          "internalType": "address",
          "name": "_addr",
          "type": "address"
        }
      ],
      "name": "isAdmin",
      "outputs": [
        {
          "internalType": "bool",
          "name": "",
          "type": "bool"
        }
      ],
      "stateMutability": "view",
      "type": "function"
    },
    {
      "inputs": [
        {
          "internalType": "address",
          "name": "owner",
          "type": "address"
        },
        {
          "internalType": "address",
          "name": "operator",
          "type": "address"
        }
      ],
      "name": "isApprovedForAll",
      "outputs": [
        {
          "internalType": "bool",
          "name": "",
          "type": "bool"
        }
      ],
      "stateMutability": "view",
      "type": "function"
    },
    {
      "inputs": [
        {
          "internalType": "address",
          "name": "_to",
          "type": "address"
        }
      ],
      "name": "mint",
      "outputs": [],
      "stateMutability": "nonpayable",
      "type": "function"
    },
    {
      "inputs": [
        {
          "internalType": "address",
          "name": "_to",
          "type": "address"
        },
        {
          "internalType": "string",
          "name": "_uri",
          "type": "string"
        }
      ],
      "name": "mint",
      "outputs": [],
      "stateMutability": "nonpayable",
      "type": "function"
    },
    {
      "inputs": [],
      "name": "name",
      "outputs": [
        {
          "internalType": "string",
          "name": "",
          "type": "string"
        }
      ],
      "stateMutability": "view",
      "type": "function"
    },
    {
      "inputs": [],
      "name": "owner",
      "outputs": [
        {
          "internalType": "address",
          "name": "",
          "type": "address"
        }
      ],
      "stateMutability": "view",
      "type": "function"
    },
    {
      "inputs": [
        {
          "internalType": "uint256",
          "name": "tokenId",
          "type": "uint256"
        }
      ],
      "name": "ownerOf",
      "outputs": [
        {
          "internalType": "address",
          "name": "",
          "type": "address"
        }
      ],
      "stateMutability": "view",
      "type": "function"
    },
    {
      "inputs": [],
      "name": "renounceOwnership",
      "outputs": [],
      "stateMutability": "nonpayable",
      "type": "function"
    },
    {
      "inputs": [
        {
          "internalType": "address",
          "name": "from",
          "type": "address"
        },
        {
          "internalType": "address",
          "name": "to",
          "type": "address"
        },
        {
          "internalType": "uint256",
          "name": "tokenId",
          "type": "uint256"
        }
      ],
      "name": "safeTransferFrom",
      "outputs": [],
      "stateMutability": "nonpayable",
      "type": "function"
    },
    {
      "inputs": [
        {
          "internalType": "address",
          "name": "from",
          "type": "address"
        },
        {
          "internalType": "address",
          "name": "to",
          "type": "address"
        },
        {
          "internalType": "uint256",
          "name": "tokenId",
          "type": "uint256"
        },
        {
          "internalType": "bytes",
          "name": "_data",
          "type": "bytes"
        }
      ],
      "name": "safeTransferFrom",
      "outputs": [],
      "stateMutability": "nonpayable",
      "type": "function"
    },
    {
      "inputs": [
        {
          "internalType": "address",
          "name": "_addr",
          "type": "address"
        },
        {
          "internalType": "bool",
          "name": "_type",
          "type": "bool"
        }
      ],
      "name": "setAdmin",
      "outputs": [],
      "stateMutability": "nonpayable",
      "type": "function"
    },
    {
      "inputs": [
        {
          "internalType": "address",
          "name": "operator",
          "type": "address"
        },
        {
          "internalType": "bool",
          "name": "approved",
          "type": "bool"
        }
      ],
      "name": "setApprovalForAll",
      "outputs": [],
      "stateMutability": "nonpayable",
      "type": "function"
    },
    {
      "inputs": [
        {
          "internalType": "string",
          "name": "_newBaseURI",
          "type": "string"
        }
      ],
      "name": "setBaseURI",
      "outputs": [],
      "stateMutability": "nonpayable",
      "type": "function"
    },
    {
      "inputs": [
        {
          "internalType": "string",
          "name": "_defaultUri",
          "type": "string"
        }
      ],
      "name": "setDefaultUri",
      "outputs": [],
      "stateMutability": "nonpayable",
      "type": "function"
    },
    {
      "inputs": [
        {
          "internalType": "uint256",
          "name": "_tokenId",
          "type": "uint256"
        },
        {
          "internalType": "string",
          "name": "_uri",
          "type": "string"
        }
      ],
      "name": "setTokenUri",
      "outputs": [],
      "stateMutability": "nonpayable",
      "type": "function"
    },
    {
      "inputs": [
        {
          "internalType": "string",
          "name": "_baseExtension",
          "type": "string"
        }
      ],
      "name": "setbaseExtension",
      "outputs": [],
      "stateMutability": "nonpayable",
      "type": "function"
    },
    {
      "inputs": [
        {
          "internalType": "bytes4",
          "name": "interfaceId",
          "type": "bytes4"
        }
      ],
      "name": "supportsInterface",
      "outputs": [
        {
          "internalType": "bool",
          "name": "",
          "type": "bool"
        }
      ],
      "stateMutability": "view",
      "type": "function"
    },
    {
      "inputs": [],
      "name": "symbol",
      "outputs": [
        {
          "internalType": "string",
          "name": "",
          "type": "string"
        }
      ],
      "stateMutability": "view",
      "type": "function"
    },
    {
      "inputs": [
        {
          "internalType": "uint256",
          "name": "index",
          "type": "uint256"
        }
      ],
      "name": "tokenByIndex",
      "outputs": [
        {
          "internalType": "uint256",
          "name": "",
          "type": "uint256"
        }
      ],
      "stateMutability": "view",
      "type": "function"
    },
    {
      "inputs": [
        {
          "internalType": "address",
          "name": "owner",
          "type": "address"
        },
        {
          "internalType": "uint256",
          "name": "index",
          "type": "uint256"
        }
      ],
      "name": "tokenOfOwnerByIndex",
      "outputs": [
        {
          "internalType": "uint256",
          "name": "",
          "type": "uint256"
        }
      ],
      "stateMutability": "view",
      "type": "function"
    },
    {
      "inputs": [
        {
          "internalType": "uint256",
          "name": "tokenId",
          "type": "uint256"
        }
      ],
      "name": "tokenURI",
      "outputs": [
        {
          "internalType": "string",
          "name": "",
          "type": "string"
        }
      ],
      "stateMutability": "view",
      "type": "function"
    },
    {
      "inputs": [],
      "name": "totalSupply",
      "outputs": [
        {
          "internalType": "uint256",
          "name": "",
          "type": "uint256"
        }
      ],
      "stateMutability": "view",
      "type": "function"
    },
    {
      "inputs": [
        {
          "internalType": "address",
          "name": "from",
          "type": "address"
        },
        {
          "internalType": "address",
          "name": "to",
          "type": "address"
        },
        {
          "internalType": "uint256",
          "name": "tokenId",
          "type": "uint256"
        }
      ],
      "name": "transferFrom",
      "outputs": [],
      "stateMutability": "nonpayable",
      "type": "function"
    },
    {
      "inputs": [
        {
          "internalType": "address",
          "name": "newOwner",
          "type": "address"
        }
      ],
      "name": "transferOwnership",
      "outputs": [],
      "stateMutability": "nonpayable",
      "type": "function"
    }
  ],
  "bytecode": "0x60806040526040518060400160405280600781526020017f697066733a2f2f00000000000000000000000000000000000000000000000000815250600c90805190602001906200005192919062000354565b506040518060400160405280600e81526020017f697066733a2f2f64656661756c74000000000000000000000000000000000000815250600e90805190602001906200009f92919062000354565b506000601055348015620000b257600080fd5b506040516200492c3803806200492c8339818101604052810190620000d89190620005a1565b82828160009080519060200190620000f292919062000354565b5080600190805190602001906200010b92919062000354565b5050506200012e620001226200017260201b60201c565b6200017a60201b60201c565b62000150620001426200017260201b60201c565b60016200024060201b60201c565b80600e90805190602001906200016892919062000354565b5050505062000742565b600033905090565b6000600a60009054906101000a900473ffffffffffffffffffffffffffffffffffffffff16905081600a60006101000a81548173ffffffffffffffffffffffffffffffffffffffff021916908373ffffffffffffffffffffffffffffffffffffffff1602179055508173ffffffffffffffffffffffffffffffffffffffff168173ffffffffffffffffffffffffffffffffffffffff167f8be0079c531659141344cd1fd0a4f28419497f9722a3daafe3b4186f6b6457e060405160405180910390a35050565b620002506200017260201b60201c565b73ffffffffffffffffffffffffffffffffffffffff16620002766200032a60201b60201c565b73ffffffffffffffffffffffffffffffffffffffff1614620002cf576040517f08c379a0000000000000000000000000000000000000000000000000000000008152600401620002c690620006bb565b60405180910390fd5b80600b60008473ffffffffffffffffffffffffffffffffffffffff1673ffffffffffffffffffffffffffffffffffffffff16815260200190815260200160002060006101000a81548160ff0219169083151502179055505050565b6000600a60009054906101000a900473ffffffffffffffffffffffffffffffffffffffff16905090565b82805462000362906200070c565b90600052602060002090601f016020900481019282620003865760008555620003d2565b82601f10620003a157805160ff1916838001178555620003d2565b82800160010185558215620003d2579182015b82811115620003d1578251825591602001919060010190620003b4565b5b509050620003e19190620003e5565b5090565b5b8082111562000400576000816000905550600101620003e6565b5090565b6000604051905090565b600080fd5b600080fd5b600080fd5b600080fd5b6000601f19601f8301169050919050565b7f4e487b7100000000000000000000000000000000000000000000000000000000600052604160045260246000fd5b6200046d8262000422565b810181811067ffffffffffffffff821117156200048f576200048e62000433565b5b80604052505050565b6000620004a462000404565b9050620004b2828262000462565b919050565b600067ffffffffffffffff821115620004d557620004d462000433565b5b620004e08262000422565b9050602081019050919050565b60005b838110156200050d578082015181840152602081019050620004f0565b838111156200051d576000848401525b50505050565b60006200053a6200053484620004b7565b62000498565b9050828152602081018484840111156200055957620005586200041d565b5b62000566848285620004ed565b509392505050565b600082601f83011262000586576200058562000418565b5b81516200059884826020860162000523565b91505092915050565b600080600060608486031215620005bd57620005bc6200040e565b5b600084015167ffffffffffffffff811115620005de57620005dd62000413565b5b620005ec868287016200056e565b935050602084015167ffffffffffffffff81111562000610576200060f62000413565b5b6200061e868287016200056e565b925050604084015167ffffffffffffffff81111562000642576200064162000413565b5b62000650868287016200056e565b9150509250925092565b600082825260208201905092915050565b7f4f776e61626c653a2063616c6c6572206973206e6f7420746865206f776e6572600082015250565b6000620006a36020836200065a565b9150620006b0826200066b565b602082019050919050565b60006020820190508181036000830152620006d68162000694565b9050919050565b7f4e487b7100000000000000000000000000000000000000000000000000000000600052602260045260246000fd5b600060028204905060018216806200072557607f821691505b602082108114156200073c576200073b620006dd565b5b50919050565b6141da80620007526000396000f3fe608060405234801561001057600080fd5b50600436106101da5760003560e01c80636a62784211610104578063a22cb465116100a2578063d0def52111610071578063d0def52114610551578063d2d99fec1461056d578063e985e9c51461058b578063f2fde38b146105bb576101da565b8063a22cb465146104cb578063b88d4fde146104e7578063c668286214610503578063c87b56dd14610521576101da565b806370a08231116100de57806370a0823114610455578063715018a6146104855780638da5cb5b1461048f57806395d89b41146104ad576101da565b80636a627842146103ff5780636b9d3e411461041b5780636c0360eb14610437576101da565b80632f745c591161017c5780634f6ccce71161014b5780634f6ccce71461036757806355f804b31461039757806357f7789e146103b35780636352211e146103cf576101da565b80632f745c59146102e357806342842e0e14610313578063466a18de1461032f5780634b0bddd21461034b576101da565b8063095ea7b3116101b8578063095ea7b31461025d57806318160ddd1461027957806323b872dd1461029757806324d7806c146102b3576101da565b806301ffc9a7146101df57806306fdde031461020f578063081812fc1461022d575b600080fd5b6101f960048036038101906101f49190612b65565b6105d7565b6040516102069190612bad565b60405180910390f35b610217610651565b6040516102249190612c61565b60405180910390f35b61024760048036038101906102429190612cb9565b6106e3565b6040516102549190612d27565b60405180910390f35b61027760048036038101906102729190612d6e565b610768565b005b610281610880565b60405161028e9190612dbd565b60405180910390f35b6102b160048036038101906102ac9190612dd8565b61088d565b005b6102cd60048036038101906102c89190612e2b565b6108ed565b6040516102da9190612bad565b60405180910390f35b6102fd60048036038101906102f89190612d6e565b610943565b60405161030a9190612dbd565b60405180910390f35b61032d60048036038101906103289190612dd8565b6109e8565b005b61034960048036038101906103449190612f8d565b610a08565b005b61036560048036038101906103609190613002565b610ab5565b005b610381600480360381019061037c9190612cb9565b610b8c565b60405161038e9190612dbd565b60405180910390f35b6103b160048036038101906103ac9190612f8d565b610bfd565b005b6103cd60048036038101906103c891906130a2565b610caa565b005b6103e960048036038101906103e49190612cb9565b610dc7565b6040516103f69190612d27565b60405180910390f35b61041960048036038101906104149190612e2b565b610e79565b005b61043560048036038101906104309190612f8d565b610f3b565b005b61043f610fe8565b60405161044c9190612c61565b60405180910390f35b61046f600480360381019061046a9190612e2b565b611076565b60405161047c9190612dbd565b60405180910390f35b61048d61112e565b005b6104976111b6565b6040516104a49190612d27565b60405180910390f35b6104b56111e0565b6040516104c29190612c61565b60405180910390f35b6104e560048036038101906104e09190613002565b611272565b005b61050160048036038101906104fc91906131a3565b611288565b005b61050b6112ea565b6040516105189190612c61565b60405180910390f35b61053b60048036038101906105369190612cb9565b611378565b6040516105489190612c61565b60405180910390f35b61056b60048036038101906105669190613226565b611578565b005b61057561165f565b6040516105829190612c61565b60405180910390f35b6105a560048036038101906105a09190613286565b6116ed565b6040516105b29190612bad565b60405180910390f35b6105d560048036038101906105d09190612e2b565b611781565b005b60007f780e9d63000000000000000000000000000000000000000000000000000000007bffffffffffffffffffffffffffffffffffffffffffffffffffffffff1916827bffffffffffffffffffffffffffffffffffffffffffffffffffffffff1916148061064a575061064982611879565b5b9050919050565b606060008054610660906132f5565b80601f016020809104026020016040519081016040528092919081815260200182805461068c906132f5565b80156106d95780601f106106ae576101008083540402835291602001916106d9565b820191906000526020600020905b8154815290600101906020018083116106bc57829003601f168201915b5050505050905090565b60006106ee8261195b565b61072d576040517f08c379a000000000000000000000000000000000000000000000000000000000815260040161072490613399565b60405180910390fd5b6004600083815260200190815260200160002060009054906101000a900473ffffffffffffffffffffffffffffffffffffffff169050919050565b600061077382610dc7565b90508073ffffffffffffffffffffffffffffffffffffffff168373ffffffffffffffffffffffffffffffffffffffff1614156107e4576040517f08c379a00000000000000000000000000000000000000000000000000000000081526004016107db9061342b565b60405180910390fd5b8073ffffffffffffffffffffffffffffffffffffffff166108036119c7565b73ffffffffffffffffffffffffffffffffffffffff16148061083257506108318161082c6119c7565b6116ed565b5b610871576040517f08c379a0000000000000000000000000000000000000000000000000000000008152600401610868906134bd565b60405180910390fd5b61087b83836119cf565b505050565b6000600880549050905090565b61089e6108986119c7565b82611a88565b6108dd576040517f08c379a00000000000000000000000000000000000000000000000000000000081526004016108d49061354f565b60405180910390fd5b6108e8838383611b66565b505050565b6000600b60008373ffffffffffffffffffffffffffffffffffffffff1673ffffffffffffffffffffffffffffffffffffffff16815260200190815260200160002060009054906101000a900460ff169050919050565b600061094e83611076565b821061098f576040517f08c379a0000000000000000000000000000000000000000000000000000000008152600401610986906135e1565b60405180910390fd5b600660008473ffffffffffffffffffffffffffffffffffffffff1673ffffffffffffffffffffffffffffffffffffffff168152602001908152602001600020600083815260200190815260200160002054905092915050565b610a0383838360405180602001604052806000815250611288565b505050565b60011515600b60003373ffffffffffffffffffffffffffffffffffffffff1673ffffffffffffffffffffffffffffffffffffffff16815260200190815260200160002060009054906101000a900460ff16151514610a9b576040517f08c379a0000000000000000000000000000000000000000000000000000000008152600401610a929061364d565b60405180910390fd5b80600e9080519060200190610ab19291906129d0565b5050565b610abd6119c7565b73ffffffffffffffffffffffffffffffffffffffff16610adb6111b6565b73ffffffffffffffffffffffffffffffffffffffff1614610b31576040517f08c379a0000000000000000000000000000000000000000000000000000000008152600401610b28906136b9565b60405180910390fd5b80600b60008473ffffffffffffffffffffffffffffffffffffffff1673ffffffffffffffffffffffffffffffffffffffff16815260200190815260200160002060006101000a81548160ff0219169083151502179055505050565b6000610b96610880565b8210610bd7576040517f08c379a0000000000000000000000000000000000000000000000000000000008152600401610bce9061374b565b60405180910390fd5b60088281548110610beb57610bea61376b565b5b90600052602060002001549050919050565b60011515600b60003373ffffffffffffffffffffffffffffffffffffffff1673ffffffffffffffffffffffffffffffffffffffff16815260200190815260200160002060009054906101000a900460ff16151514610c90576040517f08c379a0000000000000000000000000000000000000000000000000000000008152600401610c879061364d565b60405180910390fd5b80600c9080519060200190610ca69291906129d0565b5050565b60011515600b60003373ffffffffffffffffffffffffffffffffffffffff1673ffffffffffffffffffffffffffffffffffffffff16815260200190815260200160002060009054906101000a900460ff16151514610d3d576040517f08c379a0000000000000000000000000000000000000000000000000000000008152600401610d349061364d565b60405180910390fd5b6000600f60008581526020019081526020016000208054610d5d906132f5565b905014610d9f576040517f08c379a0000000000000000000000000000000000000000000000000000000008152600401610d96906137e6565b60405180910390fd5b8181600f60008681526020019081526020016000209190610dc1929190612a56565b50505050565b6000806002600084815260200190815260200160002060009054906101000a900473ffffffffffffffffffffffffffffffffffffffff169050600073ffffffffffffffffffffffffffffffffffffffff168173ffffffffffffffffffffffffffffffffffffffff161415610e70576040517f08c379a0000000000000000000000000000000000000000000000000000000008152600401610e6790613878565b60405180910390fd5b80915050919050565b60011515600b60003373ffffffffffffffffffffffffffffffffffffffff1673ffffffffffffffffffffffffffffffffffffffff16815260200190815260200160002060009054906101000a900460ff16151514610f0c576040517f08c379a0000000000000000000000000000000000000000000000000000000008152600401610f039061364d565b60405180910390fd5b60006010549050610f1d8282611dcd565b600160106000828254610f3091906138c7565b925050819055505050565b60011515600b60003373ffffffffffffffffffffffffffffffffffffffff1673ffffffffffffffffffffffffffffffffffffffff16815260200190815260200160002060009054906101000a900460ff16151514610fce576040517f08c379a0000000000000000000000000000000000000000000000000000000008152600401610fc59061364d565b60405180910390fd5b80600d9080519060200190610fe49291906129d0565b5050565b600c8054610ff5906132f5565b80601f0160208091040260200160405190810160405280929190818152602001828054611021906132f5565b801561106e5780601f106110435761010080835404028352916020019161106e565b820191906000526020600020905b81548152906001019060200180831161105157829003601f168201915b505050505081565b60008073ffffffffffffffffffffffffffffffffffffffff168273ffffffffffffffffffffffffffffffffffffffff1614156110e7576040517f08c379a00000000000000000000000000000000000000000000000000000000081526004016110de9061398f565b60405180910390fd5b600360008373ffffffffffffffffffffffffffffffffffffffff1673ffffffffffffffffffffffffffffffffffffffff168152602001908152602001600020549050919050565b6111366119c7565b73ffffffffffffffffffffffffffffffffffffffff166111546111b6565b73ffffffffffffffffffffffffffffffffffffffff16146111aa576040517f08c379a00000000000000000000000000000000000000000000000000000000081526004016111a1906136b9565b60405180910390fd5b6111b46000611fa7565b565b6000600a60009054906101000a900473ffffffffffffffffffffffffffffffffffffffff16905090565b6060600180546111ef906132f5565b80601f016020809104026020016040519081016040528092919081815260200182805461121b906132f5565b80156112685780601f1061123d57610100808354040283529160200191611268565b820191906000526020600020905b81548152906001019060200180831161124b57829003601f168201915b5050505050905090565b61128461127d6119c7565b838361206d565b5050565b6112996112936119c7565b83611a88565b6112d8576040517f08c379a00000000000000000000000000000000000000000000000000000000081526004016112cf9061354f565b60405180910390fd5b6112e4848484846121da565b50505050565b600d80546112f7906132f5565b80601f0160208091040260200160405190810160405280929190818152602001828054611323906132f5565b80156113705780601f1061134557610100808354040283529160200191611370565b820191906000526020600020905b81548152906001019060200180831161135357829003601f168201915b505050505081565b60606113838261195b565b6113c2576040517f08c379a00000000000000000000000000000000000000000000000000000000081526004016113b990613a21565b60405180910390fd5b6000600f600084815260200190815260200160002080546113e2906132f5565b80601f016020809104026020016040519081016040528092919081815260200182805461140e906132f5565b801561145b5780601f106114305761010080835404028352916020019161145b565b820191906000526020600020905b81548152906001019060200180831161143e57829003601f168201915b505050505090506000815114156114ff57600e8054611479906132f5565b80601f01602080910402602001604051908101604052809291908181526020018280546114a5906132f5565b80156114f25780601f106114c7576101008083540402835291602001916114f2565b820191906000526020600020905b8154815290600101906020018083116114d557829003601f168201915b5050505050915050611573565b6000600d805461150e906132f5565b9050111561154c57600c61152184612236565b600d60405160200161153593929190613b11565b604051602081830303815290604052915050611573565b600c81604051602001611560929190613b42565b6040516020818303038152906040529150505b919050565b60011515600b60003373ffffffffffffffffffffffffffffffffffffffff1673ffffffffffffffffffffffffffffffffffffffff16815260200190815260200160002060009054906101000a900460ff1615151461160b576040517f08c379a00000000000000000000000000000000000000000000000000000000081526004016116029061364d565b60405180910390fd5b6000601054905061161c8482611dcd565b8282600f6000848152602001908152602001600020919061163e929190612a56565b5060016010600082825461165291906138c7565b9250508190555050505050565b600e805461166c906132f5565b80601f0160208091040260200160405190810160405280929190818152602001828054611698906132f5565b80156116e55780601f106116ba576101008083540402835291602001916116e5565b820191906000526020600020905b8154815290600101906020018083116116c857829003601f168201915b505050505081565b6000600560008473ffffffffffffffffffffffffffffffffffffffff1673ffffffffffffffffffffffffffffffffffffffff16815260200190815260200160002060008373ffffffffffffffffffffffffffffffffffffffff1673ffffffffffffffffffffffffffffffffffffffff16815260200190815260200160002060009054906101000a900460ff16905092915050565b6117896119c7565b73ffffffffffffffffffffffffffffffffffffffff166117a76111b6565b73ffffffffffffffffffffffffffffffffffffffff16146117fd576040517f08c379a00000000000000000000000000000000000000000000000000000000081526004016117f4906136b9565b60405180910390fd5b600073ffffffffffffffffffffffffffffffffffffffff168173ffffffffffffffffffffffffffffffffffffffff16141561186d576040517f08c379a000000000000000000000000000000000000000000000000000000000815260040161186490613bd8565b60405180910390fd5b61187681611fa7565b50565b60007f80ac58cd000000000000000000000000000000000000000000000000000000007bffffffffffffffffffffffffffffffffffffffffffffffffffffffff1916827bffffffffffffffffffffffffffffffffffffffffffffffffffffffff1916148061194457507f5b5e139f000000000000000000000000000000000000000000000000000000007bffffffffffffffffffffffffffffffffffffffffffffffffffffffff1916827bffffffffffffffffffffffffffffffffffffffffffffffffffffffff1916145b80611954575061195382612397565b5b9050919050565b60008073ffffffffffffffffffffffffffffffffffffffff166002600084815260200190815260200160002060009054906101000a900473ffffffffffffffffffffffffffffffffffffffff1673ffffffffffffffffffffffffffffffffffffffff1614159050919050565b600033905090565b816004600083815260200190815260200160002060006101000a81548173ffffffffffffffffffffffffffffffffffffffff021916908373ffffffffffffffffffffffffffffffffffffffff160217905550808273ffffffffffffffffffffffffffffffffffffffff16611a4283610dc7565b73ffffffffffffffffffffffffffffffffffffffff167f8c5be1e5ebec7d5bd14f71427d1e84f3dd0314c0f7b2291e5b200ac8c7c3b92560405160405180910390a45050565b6000611a938261195b565b611ad2576040517f08c379a0000000000000000000000000000000000000000000000000000000008152600401611ac990613c6a565b60405180910390fd5b6000611add83610dc7565b90508073ffffffffffffffffffffffffffffffffffffffff168473ffffffffffffffffffffffffffffffffffffffff161480611b1f5750611b1e81856116ed565b5b80611b5d57508373ffffffffffffffffffffffffffffffffffffffff16611b45846106e3565b73ffffffffffffffffffffffffffffffffffffffff16145b91505092915050565b8273ffffffffffffffffffffffffffffffffffffffff16611b8682610dc7565b73ffffffffffffffffffffffffffffffffffffffff1614611bdc576040517f08c379a0000000000000000000000000000000000000000000000000000000008152600401611bd390613cfc565b60405180910390fd5b600073ffffffffffffffffffffffffffffffffffffffff168273ffffffffffffffffffffffffffffffffffffffff161415611c4c576040517f08c379a0000000000000000000000000000000000000000000000000000000008152600401611c4390613d8e565b60405180910390fd5b611c57838383612401565b611c626000826119cf565b6001600360008573ffffffffffffffffffffffffffffffffffffffff1673ffffffffffffffffffffffffffffffffffffffff1681526020019081526020016000206000828254611cb29190613dae565b925050819055506001600360008473ffffffffffffffffffffffffffffffffffffffff1673ffffffffffffffffffffffffffffffffffffffff1681526020019081526020016000206000828254611d0991906138c7565b92505081905550816002600083815260200190815260200160002060006101000a81548173ffffffffffffffffffffffffffffffffffffffff021916908373ffffffffffffffffffffffffffffffffffffffff160217905550808273ffffffffffffffffffffffffffffffffffffffff168473ffffffffffffffffffffffffffffffffffffffff167fddf252ad1be2c89b69c2b068fc378daa952ba7f163c4a11628f55a4df523b3ef60405160405180910390a4611dc8838383612515565b505050565b600073ffffffffffffffffffffffffffffffffffffffff168273ffffffffffffffffffffffffffffffffffffffff161415611e3d576040517f08c379a0000000000000000000000000000000000000000000000000000000008152600401611e3490613e2e565b60405180910390fd5b611e468161195b565b15611e86576040517f08c379a0000000000000000000000000000000000000000000000000000000008152600401611e7d90613e9a565b60405180910390fd5b611e9260008383612401565b6001600360008473ffffffffffffffffffffffffffffffffffffffff1673ffffffffffffffffffffffffffffffffffffffff1681526020019081526020016000206000828254611ee291906138c7565b92505081905550816002600083815260200190815260200160002060006101000a81548173ffffffffffffffffffffffffffffffffffffffff021916908373ffffffffffffffffffffffffffffffffffffffff160217905550808273ffffffffffffffffffffffffffffffffffffffff16600073ffffffffffffffffffffffffffffffffffffffff167fddf252ad1be2c89b69c2b068fc378daa952ba7f163c4a11628f55a4df523b3ef60405160405180910390a4611fa360008383612515565b5050565b6000600a60009054906101000a900473ffffffffffffffffffffffffffffffffffffffff16905081600a60006101000a81548173ffffffffffffffffffffffffffffffffffffffff021916908373ffffffffffffffffffffffffffffffffffffffff1602179055508173ffffffffffffffffffffffffffffffffffffffff168173ffffffffffffffffffffffffffffffffffffffff167f8be0079c531659141344cd1fd0a4f28419497f9722a3daafe3b4186f6b6457e060405160405180910390a35050565b8173ffffffffffffffffffffffffffffffffffffffff168373ffffffffffffffffffffffffffffffffffffffff1614156120dc576040517f08c379a00000000000000000000000000000000000000000000000000000000081526004016120d390613f06565b60405180910390fd5b80600560008573ffffffffffffffffffffffffffffffffffffffff1673ffffffffffffffffffffffffffffffffffffffff16815260200190815260200160002060008473ffffffffffffffffffffffffffffffffffffffff1673ffffffffffffffffffffffffffffffffffffffff16815260200190815260200160002060006101000a81548160ff0219169083151502179055508173ffffffffffffffffffffffffffffffffffffffff168373ffffffffffffffffffffffffffffffffffffffff167f17307eab39ab6107e8899845ad3d59bd9653f200f220920489ca2b5937696c31836040516121cd9190612bad565b60405180910390a3505050565b6121e5848484611b66565b6121f18484848461251a565b612230576040517f08c379a000000000000000000000000000000000000000000000000000000000815260040161222790613f98565b60405180910390fd5b50505050565b6060600082141561227e576040518060400160405280600181526020017f30000000000000000000000000000000000000000000000000000000000000008152509050612392565b600082905060005b600082146122b057808061229990613fb8565b915050600a826122a99190614030565b9150612286565b60008167ffffffffffffffff8111156122cc576122cb612e62565b5b6040519080825280601f01601f1916602001820160405280156122fe5781602001600182028036833780820191505090505b5090505b6000851461238b576001826123179190613dae565b9150600a856123269190614061565b603061233291906138c7565b60f81b8183815181106123485761234761376b565b5b60200101907effffffffffffffffffffffffffffffffffffffffffffffffffffffffffffff1916908160001a905350600a856123849190614030565b9450612302565b8093505050505b919050565b60007f01ffc9a7000000000000000000000000000000000000000000000000000000007bffffffffffffffffffffffffffffffffffffffffffffffffffffffff1916827bffffffffffffffffffffffffffffffffffffffffffffffffffffffff1916149050919050565b61240c8383836126a2565b600073ffffffffffffffffffffffffffffffffffffffff168373ffffffffffffffffffffffffffffffffffffffff16141561244f5761244a816126a7565b61248e565b8173ffffffffffffffffffffffffffffffffffffffff168373ffffffffffffffffffffffffffffffffffffffff161461248d5761248c83826126f0565b5b5b600073ffffffffffffffffffffffffffffffffffffffff168273ffffffffffffffffffffffffffffffffffffffff1614156124d1576124cc8161285d565b612510565b8273ffffffffffffffffffffffffffffffffffffffff168273ffffffffffffffffffffffffffffffffffffffff161461250f5761250e828261292e565b5b5b505050565b505050565b600061253b8473ffffffffffffffffffffffffffffffffffffffff166129ad565b15612695578373ffffffffffffffffffffffffffffffffffffffff1663150b7a026125646119c7565b8786866040518563ffffffff1660e01b815260040161258694939291906140e7565b6020604051808303816000875af19250505080156125c257506040513d601f19601f820116820180604052508101906125bf9190614148565b60015b612645573d80600081146125f2576040519150601f19603f3d011682016040523d82523d6000602084013e6125f7565b606091505b5060008151141561263d576040517f08c379a000000000000000000000000000000000000000000000000000000000815260040161263490613f98565b60405180910390fd5b805181602001fd5b63150b7a0260e01b7bffffffffffffffffffffffffffffffffffffffffffffffffffffffff1916817bffffffffffffffffffffffffffffffffffffffffffffffffffffffff19161491505061269a565b600190505b949350505050565b505050565b6008805490506009600083815260200190815260200160002081905550600881908060018154018082558091505060019003906000526020600020016000909190919091505550565b600060016126fd84611076565b6127079190613dae565b90506000600760008481526020019081526020016000205490508181146127ec576000600660008673ffffffffffffffffffffffffffffffffffffffff1673ffffffffffffffffffffffffffffffffffffffff168152602001908152602001600020600084815260200190815260200160002054905080600660008773ffffffffffffffffffffffffffffffffffffffff1673ffffffffffffffffffffffffffffffffffffffff168152602001908152602001600020600084815260200190815260200160002081905550816007600083815260200190815260200160002081905550505b6007600084815260200190815260200160002060009055600660008573ffffffffffffffffffffffffffffffffffffffff1673ffffffffffffffffffffffffffffffffffffffff16815260200190815260200160002060008381526020019081526020016000206000905550505050565b600060016008805490506128719190613dae565b90506000600960008481526020019081526020016000205490506000600883815481106128a1576128a061376b565b5b9060005260206000200154905080600883815481106128c3576128c261376b565b5b90600052602060002001819055508160096000838152602001908152602001600020819055506009600085815260200190815260200160002060009055600880548061291257612911614175565b5b6001900381819060005260206000200160009055905550505050565b600061293983611076565b905081600660008573ffffffffffffffffffffffffffffffffffffffff1673ffffffffffffffffffffffffffffffffffffffff168152602001908152602001600020600083815260200190815260200160002081905550806007600084815260200190815260200160002081905550505050565b6000808273ffffffffffffffffffffffffffffffffffffffff163b119050919050565b8280546129dc906132f5565b90600052602060002090601f0160209004810192826129fe5760008555612a45565b82601f10612a1757805160ff1916838001178555612a45565b82800160010185558215612a45579182015b82811115612a44578251825591602001919060010190612a29565b5b509050612a529190612adc565b5090565b828054612a62906132f5565b90600052602060002090601f016020900481019282612a845760008555612acb565b82601f10612a9d57803560ff1916838001178555612acb565b82800160010185558215612acb579182015b82811115612aca578235825591602001919060010190612aaf565b5b509050612ad89190612adc565b5090565b5b80821115612af5576000816000905550600101612add565b5090565b6000604051905090565b600080fd5b600080fd5b60007fffffffff0000000000000000000000000000000000000000000000000000000082169050919050565b612b4281612b0d565b8114612b4d57600080fd5b50565b600081359050612b5f81612b39565b92915050565b600060208284031215612b7b57612b7a612b03565b5b6000612b8984828501612b50565b91505092915050565b60008115159050919050565b612ba781612b92565b82525050565b6000602082019050612bc26000830184612b9e565b92915050565b600081519050919050565b600082825260208201905092915050565b60005b83811015612c02578082015181840152602081019050612be7565b83811115612c11576000848401525b50505050565b6000601f19601f8301169050919050565b6000612c3382612bc8565b612c3d8185612bd3565b9350612c4d818560208601612be4565b612c5681612c17565b840191505092915050565b60006020820190508181036000830152612c7b8184612c28565b905092915050565b6000819050919050565b612c9681612c83565b8114612ca157600080fd5b50565b600081359050612cb381612c8d565b92915050565b600060208284031215612ccf57612cce612b03565b5b6000612cdd84828501612ca4565b91505092915050565b600073ffffffffffffffffffffffffffffffffffffffff82169050919050565b6000612d1182612ce6565b9050919050565b612d2181612d06565b82525050565b6000602082019050612d3c6000830184612d18565b92915050565b612d4b81612d06565b8114612d5657600080fd5b50565b600081359050612d6881612d42565b92915050565b60008060408385031215612d8557612d84612b03565b5b6000612d9385828601612d59565b9250506020612da485828601612ca4565b9150509250929050565b612db781612c83565b82525050565b6000602082019050612dd26000830184612dae565b92915050565b600080600060608486031215612df157612df0612b03565b5b6000612dff86828701612d59565b9350506020612e1086828701612d59565b9250506040612e2186828701612ca4565b9150509250925092565b600060208284031215612e4157612e40612b03565b5b6000612e4f84828501612d59565b91505092915050565b600080fd5b600080fd5b7f4e487b7100000000000000000000000000000000000000000000000000000000600052604160045260246000fd5b612e9a82612c17565b810181811067ffffffffffffffff82111715612eb957612eb8612e62565b5b80604052505050565b6000612ecc612af9565b9050612ed88282612e91565b919050565b600067ffffffffffffffff821115612ef857612ef7612e62565b5b612f0182612c17565b9050602081019050919050565b82818337600083830152505050565b6000612f30612f2b84612edd565b612ec2565b905082815260208101848484011115612f4c57612f4b612e5d565b5b612f57848285612f0e565b509392505050565b600082601f830112612f7457612f73612e58565b5b8135612f84848260208601612f1d565b91505092915050565b600060208284031215612fa357612fa2612b03565b5b600082013567ffffffffffffffff811115612fc157612fc0612b08565b5b612fcd84828501612f5f565b91505092915050565b612fdf81612b92565b8114612fea57600080fd5b50565b600081359050612ffc81612fd6565b92915050565b6000806040838503121561301957613018612b03565b5b600061302785828601612d59565b925050602061303885828601612fed565b9150509250929050565b600080fd5b600080fd5b60008083601f84011261306257613061612e58565b5b8235905067ffffffffffffffff81111561307f5761307e613042565b5b60208301915083600182028301111561309b5761309a613047565b5b9250929050565b6000806000604084860312156130bb576130ba612b03565b5b60006130c986828701612ca4565b935050602084013567ffffffffffffffff8111156130ea576130e9612b08565b5b6130f68682870161304c565b92509250509250925092565b600067ffffffffffffffff82111561311d5761311c612e62565b5b61312682612c17565b9050602081019050919050565b600061314661314184613102565b612ec2565b90508281526020810184848401111561316257613161612e5d565b5b61316d848285612f0e565b509392505050565b600082601f83011261318a57613189612e58565b5b813561319a848260208601613133565b91505092915050565b600080600080608085870312156131bd576131bc612b03565b5b60006131cb87828801612d59565b94505060206131dc87828801612d59565b93505060406131ed87828801612ca4565b925050606085013567ffffffffffffffff81111561320e5761320d612b08565b5b61321a87828801613175565b91505092959194509250565b60008060006040848603121561323f5761323e612b03565b5b600061324d86828701612d59565b935050602084013567ffffffffffffffff81111561326e5761326d612b08565b5b61327a8682870161304c565b92509250509250925092565b6000806040838503121561329d5761329c612b03565b5b60006132ab85828601612d59565b92505060206132bc85828601612d59565b9150509250929050565b7f4e487b7100000000000000000000000000000000000000000000000000000000600052602260045260246000fd5b6000600282049050600182168061330d57607f821691505b60208210811415613321576133206132c6565b5b50919050565b7f4552433732313a20617070726f76656420717565727920666f72206e6f6e657860008201527f697374656e7420746f6b656e0000000000000000000000000000000000000000602082015250565b6000613383602c83612bd3565b915061338e82613327565b604082019050919050565b600060208201905081810360008301526133b281613376565b9050919050565b7f4552433732313a20617070726f76616c20746f2063757272656e74206f776e6560008201527f7200000000000000000000000000000000000000000000000000000000000000602082015250565b6000613415602183612bd3565b9150613420826133b9565b604082019050919050565b6000602082019050818103600083015261344481613408565b9050919050565b7f4552433732313a20617070726f76652063616c6c6572206973206e6f74206f7760008201527f6e6572206e6f7220617070726f76656420666f7220616c6c0000000000000000602082015250565b60006134a7603883612bd3565b91506134b28261344b565b604082019050919050565b600060208201905081810360008301526134d68161349a565b9050919050565b7f4552433732313a207472616e736665722063616c6c6572206973206e6f74206f60008201527f776e6572206e6f7220617070726f766564000000000000000000000000000000602082015250565b6000613539603183612bd3565b9150613544826134dd565b604082019050919050565b600060208201905081810360008301526135688161352c565b9050919050565b7f455243373231456e756d657261626c653a206f776e657220696e646578206f7560008201527f74206f6620626f756e6473000000000000000000000000000000000000000000602082015250565b60006135cb602b83612bd3565b91506135d68261356f565b604082019050919050565b600060208201905081810360008301526135fa816135be565b9050919050565b7f5065726d697373696f6e2064656e6965642e0000000000000000000000000000600082015250565b6000613637601283612bd3565b915061364282613601565b602082019050919050565b600060208201905081810360008301526136668161362a565b9050919050565b7f4f776e61626c653a2063616c6c6572206973206e6f7420746865206f776e6572600082015250565b60006136a3602083612bd3565b91506136ae8261366d565b602082019050919050565b600060208201905081810360008301526136d281613696565b9050919050565b7f455243373231456e756d657261626c653a20676c6f62616c20696e646578206f60008201527f7574206f6620626f756e64730000000000000000000000000000000000000000602082015250565b6000613735602c83612bd3565b9150613740826136d9565b604082019050919050565b6000602082019050818103600083015261376481613728565b9050919050565b7f4e487b7100000000000000000000000000000000000000000000000000000000600052603260045260246000fd5b7f54686973204e465420686173206265656e207365747465640000000000000000600082015250565b60006137d0601883612bd3565b91506137db8261379a565b602082019050919050565b600060208201905081810360008301526137ff816137c3565b9050919050565b7f4552433732313a206f776e657220717565727920666f72206e6f6e657869737460008201527f656e7420746f6b656e0000000000000000000000000000000000000000000000602082015250565b6000613862602983612bd3565b915061386d82613806565b604082019050919050565b6000602082019050818103600083015261389181613855565b9050919050565b7f4e487b7100000000000000000000000000000000000000000000000000000000600052601160045260246000fd5b60006138d282612c83565b91506138dd83612c83565b9250827fffffffffffffffffffffffffffffffffffffffffffffffffffffffffffffffff0382111561391257613911613898565b5b828201905092915050565b7f4552433732313a2062616c616e636520717565727920666f7220746865207a6560008201527f726f206164647265737300000000000000000000000000000000000000000000602082015250565b6000613979602a83612bd3565b91506139848261391d565b604082019050919050565b600060208201905081810360008301526139a88161396c565b9050919050565b7f4552433732314d657461646174613a2055524920717565727920666f72206e6f60008201527f6e6578697374656e7420746f6b656e0000000000000000000000000000000000602082015250565b6000613a0b602f83612bd3565b9150613a16826139af565b604082019050919050565b60006020820190508181036000830152613a3a816139fe565b9050919050565b600081905092915050565b60008190508160005260206000209050919050565b60008154613a6e816132f5565b613a788186613a41565b94506001821660008114613a935760018114613aa457613ad7565b60ff19831686528186019350613ad7565b613aad85613a4c565b60005b83811015613acf57815481890152600182019150602081019050613ab0565b838801955050505b50505092915050565b6000613aeb82612bc8565b613af58185613a41565b9350613b05818560208601612be4565b80840191505092915050565b6000613b1d8286613a61565b9150613b298285613ae0565b9150613b358284613a61565b9150819050949350505050565b6000613b4e8285613a61565b9150613b5a8284613ae0565b91508190509392505050565b7f4f776e61626c653a206e6577206f776e657220697320746865207a65726f206160008201527f6464726573730000000000000000000000000000000000000000000000000000602082015250565b6000613bc2602683612bd3565b9150613bcd82613b66565b604082019050919050565b60006020820190508181036000830152613bf181613bb5565b9050919050565b7f4552433732313a206f70657261746f7220717565727920666f72206e6f6e657860008201527f697374656e7420746f6b656e0000000000000000000000000000000000000000602082015250565b6000613c54602c83612bd3565b9150613c5f82613bf8565b604082019050919050565b60006020820190508181036000830152613c8381613c47565b9050919050565b7f4552433732313a207472616e736665722066726f6d20696e636f72726563742060008201527f6f776e6572000000000000000000000000000000000000000000000000000000602082015250565b6000613ce6602583612bd3565b9150613cf182613c8a565b604082019050919050565b60006020820190508181036000830152613d1581613cd9565b9050919050565b7f4552433732313a207472616e7366657220746f20746865207a65726f2061646460008201527f7265737300000000000000000000000000000000000000000000000000000000602082015250565b6000613d78602483612bd3565b9150613d8382613d1c565b604082019050919050565b60006020820190508181036000830152613da781613d6b565b9050919050565b6000613db982612c83565b9150613dc483612c83565b925082821015613dd757613dd6613898565b5b828203905092915050565b7f4552433732313a206d696e7420746f20746865207a65726f2061646472657373600082015250565b6000613e18602083612bd3565b9150613e2382613de2565b602082019050919050565b60006020820190508181036000830152613e4781613e0b565b9050919050565b7f4552433732313a20746f6b656e20616c7265616479206d696e74656400000000600082015250565b6000613e84601c83612bd3565b9150613e8f82613e4e565b602082019050919050565b60006020820190508181036000830152613eb381613e77565b9050919050565b7f4552433732313a20617070726f766520746f2063616c6c657200000000000000600082015250565b6000613ef0601983612bd3565b9150613efb82613eba565b602082019050919050565b60006020820190508181036000830152613f1f81613ee3565b9050919050565b7f4552433732313a207472616e7366657220746f206e6f6e20455243373231526560008201527f63656976657220696d706c656d656e7465720000000000000000000000000000602082015250565b6000613f82603283612bd3565b9150613f8d82613f26565b604082019050919050565b60006020820190508181036000830152613fb181613f75565b9050919050565b6000613fc382612c83565b91507fffffffffffffffffffffffffffffffffffffffffffffffffffffffffffffffff821415613ff657613ff5613898565b5b600182019050919050565b7f4e487b7100000000000000000000000000000000000000000000000000000000600052601260045260246000fd5b600061403b82612c83565b915061404683612c83565b92508261405657614055614001565b5b828204905092915050565b600061406c82612c83565b915061407783612c83565b92508261408757614086614001565b5b828206905092915050565b600081519050919050565b600082825260208201905092915050565b60006140b982614092565b6140c3818561409d565b93506140d3818560208601612be4565b6140dc81612c17565b840191505092915050565b60006080820190506140fc6000830187612d18565b6141096020830186612d18565b6141166040830185612dae565b818103606083015261412881846140ae565b905095945050505050565b60008151905061414281612b39565b92915050565b60006020828403121561415e5761415d612b03565b5b600061416c84828501614133565b91505092915050565b7f4e487b7100000000000000000000000000000000000000000000000000000000600052603160045260246000fdfea26469706673582212200cb713ff70a3ea3a3223851a6a074f95848d5922d7749418f63e70028fd1149d64736f6c634300080c0033",
  "linkReferences": {},
  "deployedLinkReferences": {}
}