{
  "_format": "hh-sol-artifact-1",
  "contractName": "Admin",
  "sourceName": "contracts/admin.sol",
  "abi": [
    {
      "inputs": [],
      "stateMutability": "nonpayable",
      "type": "constructor"
    },
    {
      "anonymous": false,
      "inputs": [
        {
          "indexed": true,
          "internalType": "address",
          "name": "previousOwner",
          "type": "address"
        },
        {
          "indexed": true,
          "internalType": "address",
          "name": "newOwner",
          "type": "address"
        }
      ],
      "name": "OwnershipTransferred",
      "type": "event"
    },
    {
      "inputs": [
        {
          "internalType": "address",
          "name": "_addr",
          "type": "address"
        }
      ],
      "name": "isAdmin",
      "outputs": [
        {
          "internalType": "bool",
          "name": "",
          "type": "bool"
        }
      ],
      "stateMutability": "view",
      "type": "function"
    },
    {
      "inputs": [],
      "name": "owner",
      "outputs": [
        {
          "internalType": "address",
          "name": "",
          "type": "address"
        }
      ],
      "stateMutability": "view",
      "type": "function"
    },
    {
      "inputs": [],
      "name": "renounceOwnership",
      "outputs": [],
      "stateMutability": "nonpayable",
      "type": "function"
    },
    {
      "inputs": [
        {
          "internalType": "address",
          "name": "_addr",
          "type": "address"
        },
        {
          "internalType": "bool",
          "name": "_type",
          "type": "bool"
        }
      ],
      "name": "setAdmin",
      "outputs": [],
      "stateMutability": "nonpayable",
      "type": "function"
    },
    {
      "inputs": [
        {
          "internalType": "address",
          "name": "newOwner",
          "type": "address"
        }
      ],
      "name": "transferOwnership",
      "outputs": [],
      "stateMutability": "nonpayable",
      "type": "function"
    }
  ],
  "bytecode": "0x608060405234801561001057600080fd5b5061002d61002261005060201b60201c565b61005860201b60201c565b61004b61003e61005060201b60201c565b600161011c60201b60201c565b6102a5565b600033905090565b60008060009054906101000a900473ffffffffffffffffffffffffffffffffffffffff169050816000806101000a81548173ffffffffffffffffffffffffffffffffffffffff021916908373ffffffffffffffffffffffffffffffffffffffff1602179055508173ffffffffffffffffffffffffffffffffffffffff168173ffffffffffffffffffffffffffffffffffffffff167f8be0079c531659141344cd1fd0a4f28419497f9722a3daafe3b4186f6b6457e060405160405180910390a35050565b61012a61005060201b60201c565b73ffffffffffffffffffffffffffffffffffffffff1661014e6101ff60201b60201c565b73ffffffffffffffffffffffffffffffffffffffff16146101a4576040517f08c379a000000000000000000000000000000000000000000000000000000000815260040161019b90610285565b60405180910390fd5b80600160008473ffffffffffffffffffffffffffffffffffffffff1673ffffffffffffffffffffffffffffffffffffffff16815260200190815260200160002060006101000a81548160ff0219169083151502179055505050565b60008060009054906101000a900473ffffffffffffffffffffffffffffffffffffffff16905090565b600082825260208201905092915050565b7f4f776e61626c653a2063616c6c6572206973206e6f7420746865206f776e6572600082015250565b600061026f602083610228565b915061027a82610239565b602082019050919050565b6000602082019050818103600083015261029e81610262565b9050919050565b61072f806102b46000396000f3fe608060405234801561001057600080fd5b50600436106100575760003560e01c806324d7806c1461005c5780634b0bddd21461008c578063715018a6146100a85780638da5cb5b146100b2578063f2fde38b146100d0575b600080fd5b610076600480360381019061007191906104f1565b6100ec565b6040516100839190610539565b60405180910390f35b6100a660048036038101906100a19190610580565b610142565b005b6100b0610219565b005b6100ba6102a1565b6040516100c791906105cf565b60405180910390f35b6100ea60048036038101906100e591906104f1565b6102ca565b005b6000600160008373ffffffffffffffffffffffffffffffffffffffff1673ffffffffffffffffffffffffffffffffffffffff16815260200190815260200160002060009054906101000a900460ff169050919050565b61014a6103c2565b73ffffffffffffffffffffffffffffffffffffffff166101686102a1565b73ffffffffffffffffffffffffffffffffffffffff16146101be576040517f08c379a00000000000000000000000000000000000000000000000000000000081526004016101b590610647565b60405180910390fd5b80600160008473ffffffffffffffffffffffffffffffffffffffff1673ffffffffffffffffffffffffffffffffffffffff16815260200190815260200160002060006101000a81548160ff0219169083151502179055505050565b6102216103c2565b73ffffffffffffffffffffffffffffffffffffffff1661023f6102a1565b73ffffffffffffffffffffffffffffffffffffffff1614610295576040517f08c379a000000000000000000000000000000000000000000000000000000000815260040161028c90610647565b60405180910390fd5b61029f60006103ca565b565b60008060009054906101000a900473ffffffffffffffffffffffffffffffffffffffff16905090565b6102d26103c2565b73ffffffffffffffffffffffffffffffffffffffff166102f06102a1565b73ffffffffffffffffffffffffffffffffffffffff1614610346576040517f08c379a000000000000000000000000000000000000000000000000000000000815260040161033d90610647565b60405180910390fd5b600073ffffffffffffffffffffffffffffffffffffffff168173ffffffffffffffffffffffffffffffffffffffff1614156103b6576040517f08c379a00000000000000000000000000000000000000000000000000000000081526004016103ad906106d9565b60405180910390fd5b6103bf816103ca565b50565b600033905090565b60008060009054906101000a900473ffffffffffffffffffffffffffffffffffffffff169050816000806101000a81548173ffffffffffffffffffffffffffffffffffffffff021916908373ffffffffffffffffffffffffffffffffffffffff1602179055508173ffffffffffffffffffffffffffffffffffffffff168173ffffffffffffffffffffffffffffffffffffffff167f8be0079c531659141344cd1fd0a4f28419497f9722a3daafe3b4186f6b6457e060405160405180910390a35050565b600080fd5b600073ffffffffffffffffffffffffffffffffffffffff82169050919050565b60006104be82610493565b9050919050565b6104ce816104b3565b81146104d957600080fd5b50565b6000813590506104eb816104c5565b92915050565b6000602082840312156105075761050661048e565b5b6000610515848285016104dc565b91505092915050565b60008115159050919050565b6105338161051e565b82525050565b600060208201905061054e600083018461052a565b92915050565b61055d8161051e565b811461056857600080fd5b50565b60008135905061057a81610554565b92915050565b600080604083850312156105975761059661048e565b5b60006105a5858286016104dc565b92505060206105b68582860161056b565b9150509250929050565b6105c9816104b3565b82525050565b60006020820190506105e460008301846105c0565b92915050565b600082825260208201905092915050565b7f4f776e61626c653a2063616c6c6572206973206e6f7420746865206f776e6572600082015250565b60006106316020836105ea565b915061063c826105fb565b602082019050919050565b6000602082019050818103600083015261066081610624565b9050919050565b7f4f776e61626c653a206e6577206f776e657220697320746865207a65726f206160008201527f6464726573730000000000000000000000000000000000000000000000000000602082015250565b60006106c36026836105ea565b91506106ce82610667565b604082019050919050565b600060208201905081810360008301526106f2816106b6565b905091905056fea26469706673582212204b5841bb0d2b557635d695f814820c0f77b369ab2f06206e84f9ff6995c09ad764736f6c634300080c0033",
  "linkReferences": {},
  "deployedLinkReferences": {}
}