{
  "_format": "hh-sol-artifact-1",
  "contractName": "fusionNFT",
  "sourceName": "contracts/fusionNFT.sol",
  "abi": [
    {
      "inputs": [],
      "stateMutability": "nonpayable",
      "type": "constructor"
    },
    {
      "anonymous": false,
      "inputs": [
        {
          "indexed": true,
          "internalType": "address",
          "name": "owner",
          "type": "address"
        },
        {
          "indexed": true,
          "internalType": "address",
          "name": "approved",
          "type": "address"
        },
        {
          "indexed": true,
          "internalType": "uint256",
          "name": "tokenId",
          "type": "uint256"
        }
      ],
      "name": "Approval",
      "type": "event"
    },
    {
      "anonymous": false,
      "inputs": [
        {
          "indexed": true,
          "internalType": "address",
          "name": "owner",
          "type": "address"
        },
        {
          "indexed": true,
          "internalType": "address",
          "name": "operator",
          "type": "address"
        },
        {
          "indexed": false,
          "internalType": "bool",
          "name": "approved",
          "type": "bool"
        }
      ],
      "name": "ApprovalForAll",
      "type": "event"
    },
    {
      "anonymous": false,
      "inputs": [
        {
          "indexed": true,
          "internalType": "address",
          "name": "previousOwner",
          "type": "address"
        },
        {
          "indexed": true,
          "internalType": "address",
          "name": "newOwner",
          "type": "address"
        }
      ],
      "name": "OwnershipTransferred",
      "type": "event"
    },
    {
      "anonymous": false,
      "inputs": [
        {
          "indexed": true,
          "internalType": "address",
          "name": "from",
          "type": "address"
        },
        {
          "indexed": true,
          "internalType": "address",
          "name": "to",
          "type": "address"
        },
        {
          "indexed": true,
          "internalType": "uint256",
          "name": "tokenId",
          "type": "uint256"
        }
      ],
      "name": "Transfer",
      "type": "event"
    },
    {
      "inputs": [
        {
          "internalType": "address",
          "name": "to",
          "type": "address"
        },
        {
          "internalType": "uint256",
          "name": "tokenId",
          "type": "uint256"
        }
      ],
      "name": "approve",
      "outputs": [],
      "stateMutability": "nonpayable",
      "type": "function"
    },
    {
      "inputs": [
        {
          "internalType": "address",
          "name": "owner",
          "type": "address"
        }
      ],
      "name": "balanceOf",
      "outputs": [
        {
          "internalType": "uint256",
          "name": "",
          "type": "uint256"
        }
      ],
      "stateMutability": "view",
      "type": "function"
    },
    {
      "inputs": [],
      "name": "baseExtension",
      "outputs": [
        {
          "internalType": "string",
          "name": "",
          "type": "string"
        }
      ],
      "stateMutability": "view",
      "type": "function"
    },
    {
      "inputs": [],
      "name": "baseURI",
      "outputs": [
        {
          "internalType": "string",
          "name": "",
          "type": "string"
        }
      ],
      "stateMutability": "view",
      "type": "function"
    },
    {
      "inputs": [],
      "name": "defaultUri",
      "outputs": [
        {
          "internalType": "string",
          "name": "",
          "type": "string"
        }
      ],
      "stateMutability": "view",
      "type": "function"
    },
    {
      "inputs": [
        {
          "internalType": "uint256",
          "name": "tokenIdA",
          "type": "uint256"
        },
        {
          "internalType": "uint256",
          "name": "tokenIdB",
          "type": "uint256"
        }
      ],
      "name": "fusion",
      "outputs": [],
      "stateMutability": "nonpayable",
      "type": "function"
    },
    {
      "inputs": [
        {
          "internalType": "uint256",
          "name": "tokenId",
          "type": "uint256"
        }
      ],
      "name": "getApproved",
      "outputs": [
        {
          "internalType": "address",
          "name": "",
          "type": "address"
        }
      ],
      "stateMutability": "view",
      "type": "function"
    },
    {
      "inputs": [
        {
          "internalType": "string",
          "name": "A",
          "type": "string"
        },
        {
          "internalType": "string",
          "name": "B",
          "type": "string"
        }
      ],
      "name": "getRecipe",
      "outputs": [
        {
          "internalType": "string",
          "name": "",
          "type": "string"
        }
      ],
      "stateMutability": "view",
      "type": "function"
    },
    {
      "inputs": [
        {
          "internalType": "address",
          "name": "_addr",
          "type": "address"
        }
      ],
      "name": "isAdmin",
      "outputs": [
        {
          "internalType": "bool",
          "name": "",
          "type": "bool"
        }
      ],
      "stateMutability": "view",
      "type": "function"
    },
    {
      "inputs": [
        {
          "internalType": "address",
          "name": "owner",
          "type": "address"
        },
        {
          "internalType": "address",
          "name": "operator",
          "type": "address"
        }
      ],
      "name": "isApprovedForAll",
      "outputs": [
        {
          "internalType": "bool",
          "name": "",
          "type": "bool"
        }
      ],
      "stateMutability": "view",
      "type": "function"
    },
    {
      "inputs": [
        {
          "internalType": "address",
          "name": "_to",
          "type": "address"
        }
      ],
      "name": "mint",
      "outputs": [],
      "stateMutability": "nonpayable",
      "type": "function"
    },
    {
      "inputs": [
        {
          "internalType": "address",
          "name": "_to",
          "type": "address"
        },
        {
          "internalType": "string",
          "name": "_uri",
          "type": "string"
        }
      ],
      "name": "mint",
      "outputs": [],
      "stateMutability": "nonpayable",
      "type": "function"
    },
    {
      "inputs": [
        {
          "internalType": "address",
          "name": "_to",
          "type": "address"
        },
        {
          "internalType": "string",
          "name": "_uri",
          "type": "string"
        }
      ],
      "name": "mint2",
      "outputs": [],
      "stateMutability": "nonpayable",
      "type": "function"
    },
    {
      "inputs": [],
      "name": "name",
      "outputs": [
        {
          "internalType": "string",
          "name": "",
          "type": "string"
        }
      ],
      "stateMutability": "view",
      "type": "function"
    },
    {
      "inputs": [],
      "name": "owner",
      "outputs": [
        {
          "internalType": "address",
          "name": "",
          "type": "address"
        }
      ],
      "stateMutability": "view",
      "type": "function"
    },
    {
      "inputs": [
        {
          "internalType": "uint256",
          "name": "tokenId",
          "type": "uint256"
        }
      ],
      "name": "ownerOf",
      "outputs": [
        {
          "internalType": "address",
          "name": "",
          "type": "address"
        }
      ],
      "stateMutability": "view",
      "type": "function"
    },
    {
      "inputs": [
        {
          "internalType": "uint256",
          "name": "",
          "type": "uint256"
        },
        {
          "internalType": "uint256",
          "name": "",
          "type": "uint256"
        }
      ],
      "name": "recipe",
      "outputs": [
        {
          "internalType": "string",
          "name": "",
          "type": "string"
        }
      ],
      "stateMutability": "view",
      "type": "function"
    },
    {
      "inputs": [],
      "name": "renounceOwnership",
      "outputs": [],
      "stateMutability": "nonpayable",
      "type": "function"
    },
    {
      "inputs": [
        {
          "internalType": "address",
          "name": "from",
          "type": "address"
        },
        {
          "internalType": "address",
          "name": "to",
          "type": "address"
        },
        {
          "internalType": "uint256",
          "name": "tokenId",
          "type": "uint256"
        }
      ],
      "name": "safeTransferFrom",
      "outputs": [],
      "stateMutability": "nonpayable",
      "type": "function"
    },
    {
      "inputs": [
        {
          "internalType": "address",
          "name": "from",
          "type": "address"
        },
        {
          "internalType": "address",
          "name": "to",
          "type": "address"
        },
        {
          "internalType": "uint256",
          "name": "tokenId",
          "type": "uint256"
        },
        {
          "internalType": "bytes",
          "name": "_data",
          "type": "bytes"
        }
      ],
      "name": "safeTransferFrom",
      "outputs": [],
      "stateMutability": "nonpayable",
      "type": "function"
    },
    {
      "inputs": [
        {
          "internalType": "address",
          "name": "_addr",
          "type": "address"
        },
        {
          "internalType": "bool",
          "name": "_type",
          "type": "bool"
        }
      ],
      "name": "setAdmin",
      "outputs": [],
      "stateMutability": "nonpayable",
      "type": "function"
    },
    {
      "inputs": [
        {
          "internalType": "address",
          "name": "operator",
          "type": "address"
        },
        {
          "internalType": "bool",
          "name": "approved",
          "type": "bool"
        }
      ],
      "name": "setApprovalForAll",
      "outputs": [],
      "stateMutability": "nonpayable",
      "type": "function"
    },
    {
      "inputs": [
        {
          "internalType": "string",
          "name": "_newBaseURI",
          "type": "string"
        }
      ],
      "name": "setBaseURI",
      "outputs": [],
      "stateMutability": "nonpayable",
      "type": "function"
    },
    {
      "inputs": [
        {
          "internalType": "string",
          "name": "_defaultUri",
          "type": "string"
        }
      ],
      "name": "setDefaultUri",
      "outputs": [],
      "stateMutability": "nonpayable",
      "type": "function"
    },
    {
      "inputs": [
        {
          "internalType": "string",
          "name": "A",
          "type": "string"
        },
        {
          "internalType": "string",
          "name": "B",
          "type": "string"
        },
        {
          "internalType": "string",
          "name": "C",
          "type": "string"
        }
      ],
      "name": "setRecipe",
      "outputs": [],
      "stateMutability": "nonpayable",
      "type": "function"
    },
    {
      "inputs": [
        {
          "internalType": "uint256",
          "name": "_tokenId",
          "type": "uint256"
        },
        {
          "internalType": "string",
          "name": "_uri",
          "type": "string"
        }
      ],
      "name": "setTokenUri",
      "outputs": [],
      "stateMutability": "nonpayable",
      "type": "function"
    },
    {
      "inputs": [
        {
          "internalType": "string",
          "name": "_baseExtension",
          "type": "string"
        }
      ],
      "name": "setbaseExtension",
      "outputs": [],
      "stateMutability": "nonpayable",
      "type": "function"
    },
    {
      "inputs": [
        {
          "internalType": "bytes4",
          "name": "interfaceId",
          "type": "bytes4"
        }
      ],
      "name": "supportsInterface",
      "outputs": [
        {
          "internalType": "bool",
          "name": "",
          "type": "bool"
        }
      ],
      "stateMutability": "view",
      "type": "function"
    },
    {
      "inputs": [],
      "name": "symbol",
      "outputs": [
        {
          "internalType": "string",
          "name": "",
          "type": "string"
        }
      ],
      "stateMutability": "view",
      "type": "function"
    },
    {
      "inputs": [
        {
          "internalType": "uint256",
          "name": "index",
          "type": "uint256"
        }
      ],
      "name": "tokenByIndex",
      "outputs": [
        {
          "internalType": "uint256",
          "name": "",
          "type": "uint256"
        }
      ],
      "stateMutability": "view",
      "type": "function"
    },
    {
      "inputs": [
        {
          "internalType": "address",
          "name": "owner",
          "type": "address"
        },
        {
          "internalType": "uint256",
          "name": "index",
          "type": "uint256"
        }
      ],
      "name": "tokenOfOwnerByIndex",
      "outputs": [
        {
          "internalType": "uint256",
          "name": "",
          "type": "uint256"
        }
      ],
      "stateMutability": "view",
      "type": "function"
    },
    {
      "inputs": [
        {
          "internalType": "uint256",
          "name": "tokenId",
          "type": "uint256"
        }
      ],
      "name": "tokenURI",
      "outputs": [
        {
          "internalType": "string",
          "name": "",
          "type": "string"
        }
      ],
      "stateMutability": "view",
      "type": "function"
    },
    {
      "inputs": [],
      "name": "totalSupply",
      "outputs": [
        {
          "internalType": "uint256",
          "name": "",
          "type": "uint256"
        }
      ],
      "stateMutability": "view",
      "type": "function"
    },
    {
      "inputs": [
        {
          "internalType": "address",
          "name": "from",
          "type": "address"
        },
        {
          "internalType": "address",
          "name": "to",
          "type": "address"
        },
        {
          "internalType": "uint256",
          "name": "tokenId",
          "type": "uint256"
        }
      ],
      "name": "transferFrom",
      "outputs": [],
      "stateMutability": "nonpayable",
      "type": "function"
    },
    {
      "inputs": [
        {
          "internalType": "address",
          "name": "newOwner",
          "type": "address"
        }
      ],
      "name": "transferOwnership",
      "outputs": [],
      "stateMutability": "nonpayable",
      "type": "function"
    },
    {
      "inputs": [
        {
          "internalType": "address",
          "name": "to",
          "type": "address"
        }
      ],
      "name": "withdraw",
      "outputs": [],
      "stateMutability": "nonpayable",
      "type": "function"
    }
  ],
  "bytecode": "0x60806040526040518060400160405280600781526020017f697066733a2f2f00000000000000000000000000000000000000000000000000815250600c908051906020019062000051929190620003b5565b506040518060400160405280600e81526020017f697066733a2f2f64656661756c74000000000000000000000000000000000000815250600e90805190602001906200009f929190620003b5565b506000601055348015620000b257600080fd5b506040518060400160405280600a81526020017f467573696f6e4e465434000000000000000000000000000000000000000000008152506040518060400160405280600481526020017f46554e340000000000000000000000000000000000000000000000000000000081525060405180608001604052806042815260200162005551604291398282816000908051906020019062000153929190620003b5565b5080600190805190602001906200016c929190620003b5565b5050506200018f62000183620001d360201b60201c565b620001db60201b60201c565b620001b1620001a3620001d360201b60201c565b6001620002a160201b60201c565b80600e9080519060200190620001c9929190620003b5565b505050506200054d565b600033905090565b6000600a60009054906101000a900473ffffffffffffffffffffffffffffffffffffffff16905081600a60006101000a81548173ffffffffffffffffffffffffffffffffffffffff021916908373ffffffffffffffffffffffffffffffffffffffff1602179055508173ffffffffffffffffffffffffffffffffffffffff168173ffffffffffffffffffffffffffffffffffffffff167f8be0079c531659141344cd1fd0a4f28419497f9722a3daafe3b4186f6b6457e060405160405180910390a35050565b620002b1620001d360201b60201c565b73ffffffffffffffffffffffffffffffffffffffff16620002d76200038b60201b60201c565b73ffffffffffffffffffffffffffffffffffffffff161462000330576040517f08c379a00000000000000000000000000000000000000000000000000000000081526004016200032790620004c6565b60405180910390fd5b80600b60008473ffffffffffffffffffffffffffffffffffffffff1673ffffffffffffffffffffffffffffffffffffffff16815260200190815260200160002060006101000a81548160ff0219169083151502179055505050565b6000600a60009054906101000a900473ffffffffffffffffffffffffffffffffffffffff16905090565b828054620003c39062000517565b90600052602060002090601f016020900481019282620003e7576000855562000433565b82601f106200040257805160ff191683800117855562000433565b8280016001018555821562000433579182015b828111156200043257825182559160200191906001019062000415565b5b50905062000442919062000446565b5090565b5b808211156200046157600081600090555060010162000447565b5090565b600082825260208201905092915050565b7f4f776e61626c653a2063616c6c6572206973206e6f7420746865206f776e6572600082015250565b6000620004ae60208362000465565b9150620004bb8262000476565b602082019050919050565b60006020820190508181036000830152620004e1816200049f565b9050919050565b7f4e487b7100000000000000000000000000000000000000000000000000000000600052602260045260246000fd5b600060028204905060018216806200053057607f821691505b60208210811415620005475762000546620004e8565b5b50919050565b614ff4806200055d6000396000f3fe608060405234801561001057600080fd5b506004361061021c5760003560e01c80636a62784211610125578063c6682862116100ad578063db336a421161007c578063db336a4214610621578063e05ed5661461063d578063e985e9c51461066d578063f2fde38b1461069d578063fb6ce062146106b95761021c565b8063c668286214610599578063c87b56dd146105b7578063d0def521146105e7578063d2d99fec146106035761021c565b8063715018a6116100f4578063715018a61461051b5780638da5cb5b1461052557806395d89b4114610543578063a22cb46514610561578063b88d4fde1461057d5761021c565b80636a627842146104955780636b9d3e41146104b15780636c0360eb146104cd57806370a08231146104eb5761021c565b806342842e0e116101a857806351cff8d91161017757806351cff8d9146103f557806355f804b31461041157806357f7789e1461042d5780636352211e1461044957806365a8a037146104795761021c565b806342842e0e14610371578063466a18de1461038d5780634b0bddd2146103a95780634f6ccce7146103c55761021c565b80630d22b9be116101ef5780630d22b9be146102bb57806318160ddd146102d757806323b872dd146102f557806324d7806c146103115780632f745c59146103415761021c565b806301ffc9a71461022157806306fdde0314610251578063081812fc1461026f578063095ea7b31461029f575b600080fd5b61023b600480360381019061023691906135d2565b6106e9565b604051610248919061361a565b60405180910390f35b610259610763565b60405161026691906136ce565b60405180910390f35b61028960048036038101906102849190613726565b6107f5565b6040516102969190613794565b60405180910390f35b6102b960048036038101906102b491906137db565b61087a565b005b6102d560048036038101906102d09190613880565b610992565b005b6102df610afd565b6040516102ec9190613943565b60405180910390f35b61030f600480360381019061030a919061395e565b610b0a565b005b61032b600480360381019061032691906139b1565b610b6a565b604051610338919061361a565b60405180910390f35b61035b600480360381019061035691906137db565b610bc0565b6040516103689190613943565b60405180910390f35b61038b6004803603810190610386919061395e565b610c65565b005b6103a760048036038101906103a29190613b0e565b610c85565b005b6103c360048036038101906103be9190613b83565b610d32565b005b6103df60048036038101906103da9190613726565b610e09565b6040516103ec9190613943565b60405180910390f35b61040f600480360381019061040a91906139b1565b610e7a565b005b61042b60048036038101906104269190613b0e565b610f46565b005b61044760048036038101906104429190613bc3565b610ff3565b005b610463600480360381019061045e9190613726565b611110565b6040516104709190613794565b60405180910390f35b610493600480360381019061048e9190613c23565b6111c2565b005b6104af60048036038101906104aa91906139b1565b611550565b005b6104cb60048036038101906104c69190613b0e565b611612565b005b6104d56116bf565b6040516104e291906136ce565b60405180910390f35b610505600480360381019061050091906139b1565b61174d565b6040516105129190613943565b60405180910390f35b610523611805565b005b61052d61188d565b60405161053a9190613794565b60405180910390f35b61054b6118b7565b60405161055891906136ce565b60405180910390f35b61057b60048036038101906105769190613b83565b611949565b005b61059760048036038101906105929190613d04565b61195f565b005b6105a16119c1565b6040516105ae91906136ce565b60405180910390f35b6105d160048036038101906105cc9190613726565b611a4f565b6040516105de91906136ce565b60405180910390f35b61060160048036038101906105fc9190613d87565b611c4f565b005b61060b611d32565b60405161061891906136ce565b60405180910390f35b61063b60048036038101906106369190613d87565b611dc0565b005b61065760048036038101906106529190613de7565b611ea3565b60405161066491906136ce565b60405180910390f35b61068760048036038101906106829190613e68565b611f90565b604051610694919061361a565b60405180910390f35b6106b760048036038101906106b291906139b1565b612024565b005b6106d360048036038101906106ce9190613c23565b61211c565b6040516106e091906136ce565b60405180910390f35b60007f780e9d63000000000000000000000000000000000000000000000000000000007bffffffffffffffffffffffffffffffffffffffffffffffffffffffff1916827bffffffffffffffffffffffffffffffffffffffffffffffffffffffff1916148061075c575061075b826121c9565b5b9050919050565b60606000805461077290613ed7565b80601f016020809104026020016040519081016040528092919081815260200182805461079e90613ed7565b80156107eb5780601f106107c0576101008083540402835291602001916107eb565b820191906000526020600020905b8154815290600101906020018083116107ce57829003601f168201915b5050505050905090565b6000610800826122ab565b61083f576040517f08c379a000000000000000000000000000000000000000000000000000000000815260040161083690613f7b565b60405180910390fd5b6004600083815260200190815260200160002060009054906101000a900473ffffffffffffffffffffffffffffffffffffffff169050919050565b600061088582611110565b90508073ffffffffffffffffffffffffffffffffffffffff168373ffffffffffffffffffffffffffffffffffffffff1614156108f6576040517f08c379a00000000000000000000000000000000000000000000000000000000081526004016108ed9061400d565b60405180910390fd5b8073ffffffffffffffffffffffffffffffffffffffff16610915612317565b73ffffffffffffffffffffffffffffffffffffffff16148061094457506109438161093e612317565b611f90565b5b610983576040517f08c379a000000000000000000000000000000000000000000000000000000000815260040161097a9061409f565b60405180910390fd5b61098d838361231f565b505050565b60011515600b60003373ffffffffffffffffffffffffffffffffffffffff1673ffffffffffffffffffffffffffffffffffffffff16815260200190815260200160002060009054906101000a900460ff16151514610a25576040517f08c379a0000000000000000000000000000000000000000000000000000000008152600401610a1c9061410b565b60405180910390fd5b8181601160008989604051610a3b92919061415b565b604051809103902060001c815260200190815260200160002060008787604051610a6692919061415b565b604051809103902060001c81526020019081526020016000209190610a8c92919061343d565b508181601160008787604051610aa392919061415b565b604051809103902060001c815260200190815260200160002060008989604051610ace92919061415b565b604051809103902060001c81526020019081526020016000209190610af492919061343d565b50505050505050565b6000600880549050905090565b610b1b610b15612317565b826123d8565b610b5a576040517f08c379a0000000000000000000000000000000000000000000000000000000008152600401610b51906141e6565b60405180910390fd5b610b658383836124b6565b505050565b6000600b60008373ffffffffffffffffffffffffffffffffffffffff1673ffffffffffffffffffffffffffffffffffffffff16815260200190815260200160002060009054906101000a900460ff169050919050565b6000610bcb8361174d565b8210610c0c576040517f08c379a0000000000000000000000000000000000000000000000000000000008152600401610c0390614278565b60405180910390fd5b600660008473ffffffffffffffffffffffffffffffffffffffff1673ffffffffffffffffffffffffffffffffffffffff168152602001908152602001600020600083815260200190815260200160002054905092915050565b610c808383836040518060200160405280600081525061195f565b505050565b60011515600b60003373ffffffffffffffffffffffffffffffffffffffff1673ffffffffffffffffffffffffffffffffffffffff16815260200190815260200160002060009054906101000a900460ff16151514610d18576040517f08c379a0000000000000000000000000000000000000000000000000000000008152600401610d0f9061410b565b60405180910390fd5b80600e9080519060200190610d2e9291906134c3565b5050565b610d3a612317565b73ffffffffffffffffffffffffffffffffffffffff16610d5861188d565b73ffffffffffffffffffffffffffffffffffffffff1614610dae576040517f08c379a0000000000000000000000000000000000000000000000000000000008152600401610da5906142e4565b60405180910390fd5b80600b60008473ffffffffffffffffffffffffffffffffffffffff1673ffffffffffffffffffffffffffffffffffffffff16815260200190815260200160002060006101000a81548160ff0219169083151502179055505050565b6000610e13610afd565b8210610e54576040517f08c379a0000000000000000000000000000000000000000000000000000000008152600401610e4b90614376565b60405180910390fd5b60088281548110610e6857610e67614396565b5b90600052602060002001549050919050565b610e82612317565b73ffffffffffffffffffffffffffffffffffffffff16610ea061188d565b73ffffffffffffffffffffffffffffffffffffffff1614610ef6576040517f08c379a0000000000000000000000000000000000000000000000000000000008152600401610eed906142e4565b60405180910390fd5b60004790508173ffffffffffffffffffffffffffffffffffffffff166108fc829081150290604051600060405180830381858888f19350505050158015610f41573d6000803e3d6000fd5b505050565b60011515600b60003373ffffffffffffffffffffffffffffffffffffffff1673ffffffffffffffffffffffffffffffffffffffff16815260200190815260200160002060009054906101000a900460ff16151514610fd9576040517f08c379a0000000000000000000000000000000000000000000000000000000008152600401610fd09061410b565b60405180910390fd5b80600c9080519060200190610fef9291906134c3565b5050565b60011515600b60003373ffffffffffffffffffffffffffffffffffffffff1673ffffffffffffffffffffffffffffffffffffffff16815260200190815260200160002060009054906101000a900460ff16151514611086576040517f08c379a000000000000000000000000000000000000000000000000000000000815260040161107d9061410b565b60405180910390fd5b6000600f600085815260200190815260200160002080546110a690613ed7565b9050146110e8576040517f08c379a00000000000000000000000000000000000000000000000000000000081526004016110df90614411565b60405180910390fd5b8181600f6000868152602001908152602001600020919061110a92919061343d565b50505050565b6000806002600084815260200190815260200160002060009054906101000a900473ffffffffffffffffffffffffffffffffffffffff169050600073ffffffffffffffffffffffffffffffffffffffff168173ffffffffffffffffffffffffffffffffffffffff1614156111b9576040517f08c379a00000000000000000000000000000000000000000000000000000000081526004016111b0906144a3565b60405180910390fd5b80915050919050565b3373ffffffffffffffffffffffffffffffffffffffff166111e283611110565b73ffffffffffffffffffffffffffffffffffffffff1614611238576040517f08c379a000000000000000000000000000000000000000000000000000000000815260040161122f9061450f565b60405180910390fd5b3373ffffffffffffffffffffffffffffffffffffffff1661125882611110565b73ffffffffffffffffffffffffffffffffffffffff16146112ae576040517f08c379a00000000000000000000000000000000000000000000000000000000081526004016112a59061457b565b60405180910390fd5b600060116000600f60008681526020019081526020016000206040516112d4919061462f565b604051809103902060001c81526020019081526020016000206000600f600085815260200190815260200160002060405161130f919061462f565b604051809103902060001c8152602001908152602001600020805461133390613ed7565b90501415611376576040517f08c379a000000000000000000000000000000000000000000000000000000000815260040161136d90614692565b60405180910390fd5b600060116000600f600086815260200190815260200160002060405161139c919061462f565b604051809103902060001c81526020019081526020016000206000600f60008581526020019081526020016000206040516113d7919061462f565b604051809103902060001c815260200190815260200160002080546113fb90613ed7565b80601f016020809104026020016040519081016040528092919081815260200182805461142790613ed7565b80156114745780601f1061144957610100808354040283529160200191611474565b820191906000526020600020905b81548152906001019060200180831161145757829003601f168201915b505050505090506114848361271d565b60405180602001604052806000815250600f600085815260200190815260200160002090805190602001906114ba9291906134c3565b506114c48261271d565b60405180602001604052806000815250600f600084815260200190815260200160002090805190602001906114fa9291906134c3565b506115073360105461283a565b80600f6000601054815260200190815260200160002090805190602001906115309291906134c3565b5060016010600082825461154491906146e1565b92505081905550505050565b60011515600b60003373ffffffffffffffffffffffffffffffffffffffff1673ffffffffffffffffffffffffffffffffffffffff16815260200190815260200160002060009054906101000a900460ff161515146115e3576040517f08c379a00000000000000000000000000000000000000000000000000000000081526004016115da9061410b565b60405180910390fd5b600060105490506115f4828261283a565b60016010600082825461160791906146e1565b925050819055505050565b60011515600b60003373ffffffffffffffffffffffffffffffffffffffff1673ffffffffffffffffffffffffffffffffffffffff16815260200190815260200160002060009054906101000a900460ff161515146116a5576040517f08c379a000000000000000000000000000000000000000000000000000000000815260040161169c9061410b565b60405180910390fd5b80600d90805190602001906116bb9291906134c3565b5050565b600c80546116cc90613ed7565b80601f01602080910402602001604051908101604052809291908181526020018280546116f890613ed7565b80156117455780601f1061171a57610100808354040283529160200191611745565b820191906000526020600020905b81548152906001019060200180831161172857829003601f168201915b505050505081565b60008073ffffffffffffffffffffffffffffffffffffffff168273ffffffffffffffffffffffffffffffffffffffff1614156117be576040517f08c379a00000000000000000000000000000000000000000000000000000000081526004016117b5906147a9565b60405180910390fd5b600360008373ffffffffffffffffffffffffffffffffffffffff1673ffffffffffffffffffffffffffffffffffffffff168152602001908152602001600020549050919050565b61180d612317565b73ffffffffffffffffffffffffffffffffffffffff1661182b61188d565b73ffffffffffffffffffffffffffffffffffffffff1614611881576040517f08c379a0000000000000000000000000000000000000000000000000000000008152600401611878906142e4565b60405180910390fd5b61188b6000612a14565b565b6000600a60009054906101000a900473ffffffffffffffffffffffffffffffffffffffff16905090565b6060600180546118c690613ed7565b80601f01602080910402602001604051908101604052809291908181526020018280546118f290613ed7565b801561193f5780601f106119145761010080835404028352916020019161193f565b820191906000526020600020905b81548152906001019060200180831161192257829003601f168201915b5050505050905090565b61195b611954612317565b8383612ada565b5050565b61197061196a612317565b836123d8565b6119af576040517f08c379a00000000000000000000000000000000000000000000000000000000081526004016119a6906141e6565b60405180910390fd5b6119bb84848484612c47565b50505050565b600d80546119ce90613ed7565b80601f01602080910402602001604051908101604052809291908181526020018280546119fa90613ed7565b8015611a475780601f10611a1c57610100808354040283529160200191611a47565b820191906000526020600020905b815481529060010190602001808311611a2a57829003601f168201915b505050505081565b6060611a5a826122ab565b611a99576040517f08c379a0000000000000000000000000000000000000000000000000000000008152600401611a909061483b565b60405180910390fd5b6000600f60008481526020019081526020016000208054611ab990613ed7565b80601f0160208091040260200160405190810160405280929190818152602001828054611ae590613ed7565b8015611b325780601f10611b0757610100808354040283529160200191611b32565b820191906000526020600020905b815481529060010190602001808311611b1557829003601f168201915b50505050509050600081511415611bd657600e8054611b5090613ed7565b80601f0160208091040260200160405190810160405280929190818152602001828054611b7c90613ed7565b8015611bc95780601f10611b9e57610100808354040283529160200191611bc9565b820191906000526020600020905b815481529060010190602001808311611bac57829003601f168201915b5050505050915050611c4a565b6000600d8054611be590613ed7565b90501115611c2357600c611bf884612ca3565b600d604051602001611c0c9392919061492b565b604051602081830303815290604052915050611c4a565b600c81604051602001611c3792919061495c565b6040516020818303038152906040529150505b919050565b60011515600b60003373ffffffffffffffffffffffffffffffffffffffff1673ffffffffffffffffffffffffffffffffffffffff16815260200190815260200160002060009054906101000a900460ff16151514611ce2576040517f08c379a0000000000000000000000000000000000000000000000000000000008152600401611cd99061410b565b60405180910390fd5b611cee8360105461283a565b8181600f600060105481526020019081526020016000209190611d1292919061343d565b50600160106000828254611d2691906146e1565b92505081905550505050565b600e8054611d3f90613ed7565b80601f0160208091040260200160405190810160405280929190818152602001828054611d6b90613ed7565b8015611db85780601f10611d8d57610100808354040283529160200191611db8565b820191906000526020600020905b815481529060010190602001808311611d9b57829003601f168201915b505050505081565b60011515600b60003373ffffffffffffffffffffffffffffffffffffffff1673ffffffffffffffffffffffffffffffffffffffff16815260200190815260200160002060009054906101000a900460ff16151514611e53576040517f08c379a0000000000000000000000000000000000000000000000000000000008152600401611e4a9061410b565b60405180910390fd5b611e5f8360105461283a565b8181600f600060105481526020019081526020016000209190611e8392919061343d565b50600160106000828254611e9791906146e1565b92505081905550505050565b6060601160008686604051611eb992919061415b565b604051809103902060001c815260200190815260200160002060008484604051611ee492919061415b565b604051809103902060001c81526020019081526020016000208054611f0890613ed7565b80601f0160208091040260200160405190810160405280929190818152602001828054611f3490613ed7565b8015611f815780601f10611f5657610100808354040283529160200191611f81565b820191906000526020600020905b815481529060010190602001808311611f6457829003601f168201915b50505050509050949350505050565b6000600560008473ffffffffffffffffffffffffffffffffffffffff1673ffffffffffffffffffffffffffffffffffffffff16815260200190815260200160002060008373ffffffffffffffffffffffffffffffffffffffff1673ffffffffffffffffffffffffffffffffffffffff16815260200190815260200160002060009054906101000a900460ff16905092915050565b61202c612317565b73ffffffffffffffffffffffffffffffffffffffff1661204a61188d565b73ffffffffffffffffffffffffffffffffffffffff16146120a0576040517f08c379a0000000000000000000000000000000000000000000000000000000008152600401612097906142e4565b60405180910390fd5b600073ffffffffffffffffffffffffffffffffffffffff168173ffffffffffffffffffffffffffffffffffffffff161415612110576040517f08c379a0000000000000000000000000000000000000000000000000000000008152600401612107906149f2565b60405180910390fd5b61211981612a14565b50565b601160205281600052604060002060205280600052604060002060009150915050805461214890613ed7565b80601f016020809104026020016040519081016040528092919081815260200182805461217490613ed7565b80156121c15780601f10612196576101008083540402835291602001916121c1565b820191906000526020600020905b8154815290600101906020018083116121a457829003601f168201915b505050505081565b60007f80ac58cd000000000000000000000000000000000000000000000000000000007bffffffffffffffffffffffffffffffffffffffffffffffffffffffff1916827bffffffffffffffffffffffffffffffffffffffffffffffffffffffff1916148061229457507f5b5e139f000000000000000000000000000000000000000000000000000000007bffffffffffffffffffffffffffffffffffffffffffffffffffffffff1916827bffffffffffffffffffffffffffffffffffffffffffffffffffffffff1916145b806122a457506122a382612e04565b5b9050919050565b60008073ffffffffffffffffffffffffffffffffffffffff166002600084815260200190815260200160002060009054906101000a900473ffffffffffffffffffffffffffffffffffffffff1673ffffffffffffffffffffffffffffffffffffffff1614159050919050565b600033905090565b816004600083815260200190815260200160002060006101000a81548173ffffffffffffffffffffffffffffffffffffffff021916908373ffffffffffffffffffffffffffffffffffffffff160217905550808273ffffffffffffffffffffffffffffffffffffffff1661239283611110565b73ffffffffffffffffffffffffffffffffffffffff167f8c5be1e5ebec7d5bd14f71427d1e84f3dd0314c0f7b2291e5b200ac8c7c3b92560405160405180910390a45050565b60006123e3826122ab565b612422576040517f08c379a000000000000000000000000000000000000000000000000000000000815260040161241990614a84565b60405180910390fd5b600061242d83611110565b90508073ffffffffffffffffffffffffffffffffffffffff168473ffffffffffffffffffffffffffffffffffffffff16148061246f575061246e8185611f90565b5b806124ad57508373ffffffffffffffffffffffffffffffffffffffff16612495846107f5565b73ffffffffffffffffffffffffffffffffffffffff16145b91505092915050565b8273ffffffffffffffffffffffffffffffffffffffff166124d682611110565b73ffffffffffffffffffffffffffffffffffffffff161461252c576040517f08c379a000000000000000000000000000000000000000000000000000000000815260040161252390614b16565b60405180910390fd5b600073ffffffffffffffffffffffffffffffffffffffff168273ffffffffffffffffffffffffffffffffffffffff16141561259c576040517f08c379a000000000000000000000000000000000000000000000000000000000815260040161259390614ba8565b60405180910390fd5b6125a7838383612e6e565b6125b260008261231f565b6001600360008573ffffffffffffffffffffffffffffffffffffffff1673ffffffffffffffffffffffffffffffffffffffff16815260200190815260200160002060008282546126029190614bc8565b925050819055506001600360008473ffffffffffffffffffffffffffffffffffffffff1673ffffffffffffffffffffffffffffffffffffffff168152602001908152602001600020600082825461265991906146e1565b92505081905550816002600083815260200190815260200160002060006101000a81548173ffffffffffffffffffffffffffffffffffffffff021916908373ffffffffffffffffffffffffffffffffffffffff160217905550808273ffffffffffffffffffffffffffffffffffffffff168473ffffffffffffffffffffffffffffffffffffffff167fddf252ad1be2c89b69c2b068fc378daa952ba7f163c4a11628f55a4df523b3ef60405160405180910390a4612718838383612f82565b505050565b600061272882611110565b905061273681600084612e6e565b61274160008361231f565b6001600360008373ffffffffffffffffffffffffffffffffffffffff1673ffffffffffffffffffffffffffffffffffffffff16815260200190815260200160002060008282546127919190614bc8565b925050819055506002600083815260200190815260200160002060006101000a81549073ffffffffffffffffffffffffffffffffffffffff021916905581600073ffffffffffffffffffffffffffffffffffffffff168273ffffffffffffffffffffffffffffffffffffffff167fddf252ad1be2c89b69c2b068fc378daa952ba7f163c4a11628f55a4df523b3ef60405160405180910390a461283681600084612f82565b5050565b600073ffffffffffffffffffffffffffffffffffffffff168273ffffffffffffffffffffffffffffffffffffffff1614156128aa576040517f08c379a00000000000000000000000000000000000000000000000000000000081526004016128a190614c48565b60405180910390fd5b6128b3816122ab565b156128f3576040517f08c379a00000000000000000000000000000000000000000000000000000000081526004016128ea90614cb4565b60405180910390fd5b6128ff60008383612e6e565b6001600360008473ffffffffffffffffffffffffffffffffffffffff1673ffffffffffffffffffffffffffffffffffffffff168152602001908152602001600020600082825461294f91906146e1565b92505081905550816002600083815260200190815260200160002060006101000a81548173ffffffffffffffffffffffffffffffffffffffff021916908373ffffffffffffffffffffffffffffffffffffffff160217905550808273ffffffffffffffffffffffffffffffffffffffff16600073ffffffffffffffffffffffffffffffffffffffff167fddf252ad1be2c89b69c2b068fc378daa952ba7f163c4a11628f55a4df523b3ef60405160405180910390a4612a1060008383612f82565b5050565b6000600a60009054906101000a900473ffffffffffffffffffffffffffffffffffffffff16905081600a60006101000a81548173ffffffffffffffffffffffffffffffffffffffff021916908373ffffffffffffffffffffffffffffffffffffffff1602179055508173ffffffffffffffffffffffffffffffffffffffff168173ffffffffffffffffffffffffffffffffffffffff167f8be0079c531659141344cd1fd0a4f28419497f9722a3daafe3b4186f6b6457e060405160405180910390a35050565b8173ffffffffffffffffffffffffffffffffffffffff168373ffffffffffffffffffffffffffffffffffffffff161415612b49576040517f08c379a0000000000000000000000000000000000000000000000000000000008152600401612b4090614d20565b60405180910390fd5b80600560008573ffffffffffffffffffffffffffffffffffffffff1673ffffffffffffffffffffffffffffffffffffffff16815260200190815260200160002060008473ffffffffffffffffffffffffffffffffffffffff1673ffffffffffffffffffffffffffffffffffffffff16815260200190815260200160002060006101000a81548160ff0219169083151502179055508173ffffffffffffffffffffffffffffffffffffffff168373ffffffffffffffffffffffffffffffffffffffff167f17307eab39ab6107e8899845ad3d59bd9653f200f220920489ca2b5937696c3183604051612c3a919061361a565b60405180910390a3505050565b612c528484846124b6565b612c5e84848484612f87565b612c9d576040517f08c379a0000000000000000000000000000000000000000000000000000000008152600401612c9490614db2565b60405180910390fd5b50505050565b60606000821415612ceb576040518060400160405280600181526020017f30000000000000000000000000000000000000000000000000000000000000008152509050612dff565b600082905060005b60008214612d1d578080612d0690614dd2565b915050600a82612d169190614e4a565b9150612cf3565b60008167ffffffffffffffff811115612d3957612d386139e3565b5b6040519080825280601f01601f191660200182016040528015612d6b5781602001600182028036833780820191505090505b5090505b60008514612df857600182612d849190614bc8565b9150600a85612d939190614e7b565b6030612d9f91906146e1565b60f81b818381518110612db557612db4614396565b5b60200101907effffffffffffffffffffffffffffffffffffffffffffffffffffffffffffff1916908160001a905350600a85612df19190614e4a565b9450612d6f565b8093505050505b919050565b60007f01ffc9a7000000000000000000000000000000000000000000000000000000007bffffffffffffffffffffffffffffffffffffffffffffffffffffffff1916827bffffffffffffffffffffffffffffffffffffffffffffffffffffffff1916149050919050565b612e7983838361310f565b600073ffffffffffffffffffffffffffffffffffffffff168373ffffffffffffffffffffffffffffffffffffffff161415612ebc57612eb781613114565b612efb565b8173ffffffffffffffffffffffffffffffffffffffff168373ffffffffffffffffffffffffffffffffffffffff1614612efa57612ef9838261315d565b5b5b600073ffffffffffffffffffffffffffffffffffffffff168273ffffffffffffffffffffffffffffffffffffffff161415612f3e57612f39816132ca565b612f7d565b8273ffffffffffffffffffffffffffffffffffffffff168273ffffffffffffffffffffffffffffffffffffffff1614612f7c57612f7b828261339b565b5b5b505050565b505050565b6000612fa88473ffffffffffffffffffffffffffffffffffffffff1661341a565b15613102578373ffffffffffffffffffffffffffffffffffffffff1663150b7a02612fd1612317565b8786866040518563ffffffff1660e01b8152600401612ff39493929190614f01565b6020604051808303816000875af192505050801561302f57506040513d601f19601f8201168201806040525081019061302c9190614f62565b60015b6130b2573d806000811461305f576040519150601f19603f3d011682016040523d82523d6000602084013e613064565b606091505b506000815114156130aa576040517f08c379a00000000000000000000000000000000000000000000000000000000081526004016130a190614db2565b60405180910390fd5b805181602001fd5b63150b7a0260e01b7bffffffffffffffffffffffffffffffffffffffffffffffffffffffff1916817bffffffffffffffffffffffffffffffffffffffffffffffffffffffff191614915050613107565b600190505b949350505050565b505050565b6008805490506009600083815260200190815260200160002081905550600881908060018154018082558091505060019003906000526020600020016000909190919091505550565b6000600161316a8461174d565b6131749190614bc8565b9050600060076000848152602001908152602001600020549050818114613259576000600660008673ffffffffffffffffffffffffffffffffffffffff1673ffffffffffffffffffffffffffffffffffffffff168152602001908152602001600020600084815260200190815260200160002054905080600660008773ffffffffffffffffffffffffffffffffffffffff1673ffffffffffffffffffffffffffffffffffffffff168152602001908152602001600020600084815260200190815260200160002081905550816007600083815260200190815260200160002081905550505b6007600084815260200190815260200160002060009055600660008573ffffffffffffffffffffffffffffffffffffffff1673ffffffffffffffffffffffffffffffffffffffff16815260200190815260200160002060008381526020019081526020016000206000905550505050565b600060016008805490506132de9190614bc8565b905060006009600084815260200190815260200160002054905060006008838154811061330e5761330d614396565b5b9060005260206000200154905080600883815481106133305761332f614396565b5b90600052602060002001819055508160096000838152602001908152602001600020819055506009600085815260200190815260200160002060009055600880548061337f5761337e614f8f565b5b6001900381819060005260206000200160009055905550505050565b60006133a68361174d565b905081600660008573ffffffffffffffffffffffffffffffffffffffff1673ffffffffffffffffffffffffffffffffffffffff168152602001908152602001600020600083815260200190815260200160002081905550806007600084815260200190815260200160002081905550505050565b6000808273ffffffffffffffffffffffffffffffffffffffff163b119050919050565b82805461344990613ed7565b90600052602060002090601f01602090048101928261346b57600085556134b2565b82601f1061348457803560ff19168380011785556134b2565b828001600101855582156134b2579182015b828111156134b1578235825591602001919060010190613496565b5b5090506134bf9190613549565b5090565b8280546134cf90613ed7565b90600052602060002090601f0160209004810192826134f15760008555613538565b82601f1061350a57805160ff1916838001178555613538565b82800160010185558215613538579182015b8281111561353757825182559160200191906001019061351c565b5b5090506135459190613549565b5090565b5b8082111561356257600081600090555060010161354a565b5090565b6000604051905090565b600080fd5b600080fd5b60007fffffffff0000000000000000000000000000000000000000000000000000000082169050919050565b6135af8161357a565b81146135ba57600080fd5b50565b6000813590506135cc816135a6565b92915050565b6000602082840312156135e8576135e7613570565b5b60006135f6848285016135bd565b91505092915050565b60008115159050919050565b613614816135ff565b82525050565b600060208201905061362f600083018461360b565b92915050565b600081519050919050565b600082825260208201905092915050565b60005b8381101561366f578082015181840152602081019050613654565b8381111561367e576000848401525b50505050565b6000601f19601f8301169050919050565b60006136a082613635565b6136aa8185613640565b93506136ba818560208601613651565b6136c381613684565b840191505092915050565b600060208201905081810360008301526136e88184613695565b905092915050565b6000819050919050565b613703816136f0565b811461370e57600080fd5b50565b600081359050613720816136fa565b92915050565b60006020828403121561373c5761373b613570565b5b600061374a84828501613711565b91505092915050565b600073ffffffffffffffffffffffffffffffffffffffff82169050919050565b600061377e82613753565b9050919050565b61378e81613773565b82525050565b60006020820190506137a96000830184613785565b92915050565b6137b881613773565b81146137c357600080fd5b50565b6000813590506137d5816137af565b92915050565b600080604083850312156137f2576137f1613570565b5b6000613800858286016137c6565b925050602061381185828601613711565b9150509250929050565b600080fd5b600080fd5b600080fd5b60008083601f8401126138405761383f61381b565b5b8235905067ffffffffffffffff81111561385d5761385c613820565b5b60208301915083600182028301111561387957613878613825565b5b9250929050565b6000806000806000806060878903121561389d5761389c613570565b5b600087013567ffffffffffffffff8111156138bb576138ba613575565b5b6138c789828a0161382a565b9650965050602087013567ffffffffffffffff8111156138ea576138e9613575565b5b6138f689828a0161382a565b9450945050604087013567ffffffffffffffff81111561391957613918613575565b5b61392589828a0161382a565b92509250509295509295509295565b61393d816136f0565b82525050565b60006020820190506139586000830184613934565b92915050565b60008060006060848603121561397757613976613570565b5b6000613985868287016137c6565b9350506020613996868287016137c6565b92505060406139a786828701613711565b9150509250925092565b6000602082840312156139c7576139c6613570565b5b60006139d5848285016137c6565b91505092915050565b600080fd5b7f4e487b7100000000000000000000000000000000000000000000000000000000600052604160045260246000fd5b613a1b82613684565b810181811067ffffffffffffffff82111715613a3a57613a396139e3565b5b80604052505050565b6000613a4d613566565b9050613a598282613a12565b919050565b600067ffffffffffffffff821115613a7957613a786139e3565b5b613a8282613684565b9050602081019050919050565b82818337600083830152505050565b6000613ab1613aac84613a5e565b613a43565b905082815260208101848484011115613acd57613acc6139de565b5b613ad8848285613a8f565b509392505050565b600082601f830112613af557613af461381b565b5b8135613b05848260208601613a9e565b91505092915050565b600060208284031215613b2457613b23613570565b5b600082013567ffffffffffffffff811115613b4257613b41613575565b5b613b4e84828501613ae0565b91505092915050565b613b60816135ff565b8114613b6b57600080fd5b50565b600081359050613b7d81613b57565b92915050565b60008060408385031215613b9a57613b99613570565b5b6000613ba8858286016137c6565b9250506020613bb985828601613b6e565b9150509250929050565b600080600060408486031215613bdc57613bdb613570565b5b6000613bea86828701613711565b935050602084013567ffffffffffffffff811115613c0b57613c0a613575565b5b613c178682870161382a565b92509250509250925092565b60008060408385031215613c3a57613c39613570565b5b6000613c4885828601613711565b9250506020613c5985828601613711565b9150509250929050565b600067ffffffffffffffff821115613c7e57613c7d6139e3565b5b613c8782613684565b9050602081019050919050565b6000613ca7613ca284613c63565b613a43565b905082815260208101848484011115613cc357613cc26139de565b5b613cce848285613a8f565b509392505050565b600082601f830112613ceb57613cea61381b565b5b8135613cfb848260208601613c94565b91505092915050565b60008060008060808587031215613d1e57613d1d613570565b5b6000613d2c878288016137c6565b9450506020613d3d878288016137c6565b9350506040613d4e87828801613711565b925050606085013567ffffffffffffffff811115613d6f57613d6e613575565b5b613d7b87828801613cd6565b91505092959194509250565b600080600060408486031215613da057613d9f613570565b5b6000613dae868287016137c6565b935050602084013567ffffffffffffffff811115613dcf57613dce613575565b5b613ddb8682870161382a565b92509250509250925092565b60008060008060408587031215613e0157613e00613570565b5b600085013567ffffffffffffffff811115613e1f57613e1e613575565b5b613e2b8782880161382a565b9450945050602085013567ffffffffffffffff811115613e4e57613e4d613575565b5b613e5a8782880161382a565b925092505092959194509250565b60008060408385031215613e7f57613e7e613570565b5b6000613e8d858286016137c6565b9250506020613e9e858286016137c6565b9150509250929050565b7f4e487b7100000000000000000000000000000000000000000000000000000000600052602260045260246000fd5b60006002820490506001821680613eef57607f821691505b60208210811415613f0357613f02613ea8565b5b50919050565b7f4552433732313a20617070726f76656420717565727920666f72206e6f6e657860008201527f697374656e7420746f6b656e0000000000000000000000000000000000000000602082015250565b6000613f65602c83613640565b9150613f7082613f09565b604082019050919050565b60006020820190508181036000830152613f9481613f58565b9050919050565b7f4552433732313a20617070726f76616c20746f2063757272656e74206f776e6560008201527f7200000000000000000000000000000000000000000000000000000000000000602082015250565b6000613ff7602183613640565b915061400282613f9b565b604082019050919050565b6000602082019050818103600083015261402681613fea565b9050919050565b7f4552433732313a20617070726f76652063616c6c6572206973206e6f74206f7760008201527f6e6572206e6f7220617070726f76656420666f7220616c6c0000000000000000602082015250565b6000614089603883613640565b91506140948261402d565b604082019050919050565b600060208201905081810360008301526140b88161407c565b9050919050565b7f5065726d697373696f6e2064656e6965642e0000000000000000000000000000600082015250565b60006140f5601283613640565b9150614100826140bf565b602082019050919050565b60006020820190508181036000830152614124816140e8565b9050919050565b600081905092915050565b6000614142838561412b565b935061414f838584613a8f565b82840190509392505050565b6000614168828486614136565b91508190509392505050565b7f4552433732313a207472616e736665722063616c6c6572206973206e6f74206f60008201527f776e6572206e6f7220617070726f766564000000000000000000000000000000602082015250565b60006141d0603183613640565b91506141db82614174565b604082019050919050565b600060208201905081810360008301526141ff816141c3565b9050919050565b7f455243373231456e756d657261626c653a206f776e657220696e646578206f7560008201527f74206f6620626f756e6473000000000000000000000000000000000000000000602082015250565b6000614262602b83613640565b915061426d82614206565b604082019050919050565b6000602082019050818103600083015261429181614255565b9050919050565b7f4f776e61626c653a2063616c6c6572206973206e6f7420746865206f776e6572600082015250565b60006142ce602083613640565b91506142d982614298565b602082019050919050565b600060208201905081810360008301526142fd816142c1565b9050919050565b7f455243373231456e756d657261626c653a20676c6f62616c20696e646578206f60008201527f7574206f6620626f756e64730000000000000000000000000000000000000000602082015250565b6000614360602c83613640565b915061436b82614304565b604082019050919050565b6000602082019050818103600083015261438f81614353565b9050919050565b7f4e487b7100000000000000000000000000000000000000000000000000000000600052603260045260246000fd5b7f54686973204e465420686173206265656e207365747465640000000000000000600082015250565b60006143fb601883613640565b9150614406826143c5565b602082019050919050565b6000602082019050818103600083015261442a816143ee565b9050919050565b7f4552433732313a206f776e657220717565727920666f72206e6f6e657869737460008201527f656e7420746f6b656e0000000000000000000000000000000000000000000000602082015250565b600061448d602983613640565b915061449882614431565b604082019050919050565b600060208201905081810360008301526144bc81614480565b9050919050565b7f596f7520617265206e6f7420746865206669727374204e4654206f776e657200600082015250565b60006144f9601f83613640565b9150614504826144c3565b602082019050919050565b60006020820190508181036000830152614528816144ec565b9050919050565b7f596f7520617265206e6f7420746865207365636f6e64204e4654206f776e6572600082015250565b6000614565602083613640565b91506145708261452f565b602082019050919050565b6000602082019050818103600083015261459481614558565b9050919050565b60008190508160005260206000209050919050565b600081546145bd81613ed7565b6145c7818661412b565b945060018216600081146145e257600181146145f357614626565b60ff19831686528186019350614626565b6145fc8561459b565b60005b8381101561461e578154818901526001820191506020810190506145ff565b838801955050505b50505092915050565b600061463b82846145b0565b915081905092915050565b7f5468697320726563697065206e6f742065786973740000000000000000000000600082015250565b600061467c601583613640565b915061468782614646565b602082019050919050565b600060208201905081810360008301526146ab8161466f565b9050919050565b7f4e487b7100000000000000000000000000000000000000000000000000000000600052601160045260246000fd5b60006146ec826136f0565b91506146f7836136f0565b9250827fffffffffffffffffffffffffffffffffffffffffffffffffffffffffffffffff0382111561472c5761472b6146b2565b5b828201905092915050565b7f4552433732313a2062616c616e636520717565727920666f7220746865207a6560008201527f726f206164647265737300000000000000000000000000000000000000000000602082015250565b6000614793602a83613640565b915061479e82614737565b604082019050919050565b600060208201905081810360008301526147c281614786565b9050919050565b7f4552433732314d657461646174613a2055524920717565727920666f72206e6f60008201527f6e6578697374656e7420746f6b656e0000000000000000000000000000000000602082015250565b6000614825602f83613640565b9150614830826147c9565b604082019050919050565b6000602082019050818103600083015261485481614818565b9050919050565b600081905092915050565b60008190508160005260206000209050919050565b6000815461488881613ed7565b614892818661485b565b945060018216600081146148ad57600181146148be576148f1565b60ff198316865281860193506148f1565b6148c785614866565b60005b838110156148e9578154818901526001820191506020810190506148ca565b838801955050505b50505092915050565b600061490582613635565b61490f818561485b565b935061491f818560208601613651565b80840191505092915050565b6000614937828661487b565b915061494382856148fa565b915061494f828461487b565b9150819050949350505050565b6000614968828561487b565b915061497482846148fa565b91508190509392505050565b7f4f776e61626c653a206e6577206f776e657220697320746865207a65726f206160008201527f6464726573730000000000000000000000000000000000000000000000000000602082015250565b60006149dc602683613640565b91506149e782614980565b604082019050919050565b60006020820190508181036000830152614a0b816149cf565b9050919050565b7f4552433732313a206f70657261746f7220717565727920666f72206e6f6e657860008201527f697374656e7420746f6b656e0000000000000000000000000000000000000000602082015250565b6000614a6e602c83613640565b9150614a7982614a12565b604082019050919050565b60006020820190508181036000830152614a9d81614a61565b9050919050565b7f4552433732313a207472616e736665722066726f6d20696e636f72726563742060008201527f6f776e6572000000000000000000000000000000000000000000000000000000602082015250565b6000614b00602583613640565b9150614b0b82614aa4565b604082019050919050565b60006020820190508181036000830152614b2f81614af3565b9050919050565b7f4552433732313a207472616e7366657220746f20746865207a65726f2061646460008201527f7265737300000000000000000000000000000000000000000000000000000000602082015250565b6000614b92602483613640565b9150614b9d82614b36565b604082019050919050565b60006020820190508181036000830152614bc181614b85565b9050919050565b6000614bd3826136f0565b9150614bde836136f0565b925082821015614bf157614bf06146b2565b5b828203905092915050565b7f4552433732313a206d696e7420746f20746865207a65726f2061646472657373600082015250565b6000614c32602083613640565b9150614c3d82614bfc565b602082019050919050565b60006020820190508181036000830152614c6181614c25565b9050919050565b7f4552433732313a20746f6b656e20616c7265616479206d696e74656400000000600082015250565b6000614c9e601c83613640565b9150614ca982614c68565b602082019050919050565b60006020820190508181036000830152614ccd81614c91565b9050919050565b7f4552433732313a20617070726f766520746f2063616c6c657200000000000000600082015250565b6000614d0a601983613640565b9150614d1582614cd4565b602082019050919050565b60006020820190508181036000830152614d3981614cfd565b9050919050565b7f4552433732313a207472616e7366657220746f206e6f6e20455243373231526560008201527f63656976657220696d706c656d656e7465720000000000000000000000000000602082015250565b6000614d9c603283613640565b9150614da782614d40565b604082019050919050565b60006020820190508181036000830152614dcb81614d8f565b9050919050565b6000614ddd826136f0565b91507fffffffffffffffffffffffffffffffffffffffffffffffffffffffffffffffff821415614e1057614e0f6146b2565b5b600182019050919050565b7f4e487b7100000000000000000000000000000000000000000000000000000000600052601260045260246000fd5b6000614e55826136f0565b9150614e60836136f0565b925082614e7057614e6f614e1b565b5b828204905092915050565b6000614e86826136f0565b9150614e91836136f0565b925082614ea157614ea0614e1b565b5b828206905092915050565b600081519050919050565b600082825260208201905092915050565b6000614ed382614eac565b614edd8185614eb7565b9350614eed818560208601613651565b614ef681613684565b840191505092915050565b6000608082019050614f166000830187613785565b614f236020830186613785565b614f306040830185613934565b8181036060830152614f428184614ec8565b905095945050505050565b600081519050614f5c816135a6565b92915050565b600060208284031215614f7857614f77613570565b5b6000614f8684828501614f4d565b91505092915050565b7f4e487b7100000000000000000000000000000000000000000000000000000000600052603160045260246000fdfea264697066735822122023178144d1f50189065fe9c52a141aa5136f6e575156fa2c7d29ebfdc74619c864736f6c634300080c0033697066733a2f2f6261666b72656964346a7167656e33657270676175613775376979777a7a6461746f6c6d6f7077706b6c64746e6a69616c69327779357177616e71",
  "linkReferences": {},
  "deployedLinkReferences": {}
}